:1000000080C90020915E0000A92D02007D5E0000E5
:100010007D5E00007D5E00007D5E0000000000004F
:100020000000000000000000000000000D60000063
:100030007D5E000000000000A95F00007D5E000002
:10004000D1610000D1610000D1610000D1610000E8
:10005000D1610000D1610000D1610000D1610000D8
:10006000D1610000D1610000D1610000D1610000C8
:10007000D1610000D1610000D1610000D1610000B8
:10008000D1610000D1610000D1610000D1610000A8
:10009000D1610000D1610000D1610000D161000098
:1000A000D1610000D1610000D1610000D161000088
:1000B000D1610000D1610000D1610000D161000078
:1000C000D1610000D1610000D1610000D161000068
:1000D000D1610000D1610000D1610000D161000058
:1000E000D1610000D1610000D1610000D161000048
:1000F000D1610000D1610000D1610000D161000038
:1001000081F0004102E000BF83F0004330B54FEAC8
:1001100041044FEA430594EA050F08BF90EA020F35
:100120001FBF54EA000C55EA020C7FEA645C7FEAC8
:10013000655C00F0E2804FEA5454D4EB5555B8BFEB
:100140006D420CDD2C4480EA020281EA030382EA5C
:10015000000083EA010180EA020281EA0303362DEE
:1001600088BF30BD11F0004F4FEA01314FF4801CC1
:100170004CEA113102D0404261EB410113F0004FD3
:100180004FEA03334CEA133302D0524263EB43038A
:1001900094EA050F00F0A780A4F10104D5F1200E28
:1001A0000DDB02FA0EFC22FA05F2801841F1000183
:1001B00003FA0EF2801843FA05F359410EE0A5F157
:1001C00020050EF1200E012A03FA0EFC28BF4CF088
:1001D000020C43FA05F3C01851EBE37101F000453E
:1001E00007D54FF0000EDCF1000C7EEB00006EEB4B
:1001F0000101B1F5801F1BD3B1F5001F0CD34908D5
:100200005FEA30004FEA3C0C04F101044FEA44522B
:1002100012F5800F80F09A80BCF1004F08BF5FEAB2
:10022000500C50F1000041EB045141EA050130BD92
:100230005FEA4C0C404141EB0101013C28BFB1F5A4
:10024000801FE9D291F0000F04BF01460020B1FAEF
:1002500081F308BF2033A3F10B03B3F120020CDAC2
:100260000C3208DD02F1140CC2F10C0201FA0CF0A0
:1002700021FA02F10CE002F11402D8BFC2F1200C05
:1002800001FA02F120FA0CFCDCBF41EA0C019040BB
:10029000E41AA2BF01EB0451294330BD6FEA040404
:1002A0001F3C1CDA0C340EDC04F11404C4F12002EF
:1002B00020FA04F001FA02F340EA030021FA04F301
:1002C00045EA030130BDC4F10C04C4F1200220FA58
:1002D00002F001FA04F340EA0300294630BD21FA96
:1002E00004F0294630BD94F0000F83F4801306BF5C
:1002F00081F480110134013D4EE77FEA645C18BF50
:100300007FEA655C29D094EA050F08BF90EA020FE6
:1003100005D054EA000C04BF1946104630BD91EADE
:10032000030F1EBF0021002030BD5FEA545C05D1E1
:100330004000494128BF41F0004130BD14F5800420
:100340003CBF01F5801130BD01F0004545F0FE4194
:1003500041F470014FF0000030BD7FEA645C1ABFC9
:10036000194610467FEA655C1CBF0B46024650EA00
:10037000013406BF52EA033591EA030F41F400212C
:1003800030BD00BF90F0000F04BF0021704730B5B2
:100390004FF4806404F132044FF000054FF0000187
:1003A00050E700BF90F0000F04BF0021704730B548
:1003B0004FF4806404F1320410F0004548BF40421D
:1003C0004FF000013EE700BF42004FEAE2014FEA72
:1003D00031014FEA02701FBF12F07F4393F07F4F4D
:1003E00081F06051704732F07F4208BF704793F050
:1003F0007F4F04BF41F40021704730B54FF4607463
:1004000001F0004521F000411CE700BF50EA010265
:1004100008BF704730B54FF000050AE050EA01020E
:1004200008BF704730B511F0004502D5404261EB7E
:1004300041014FF4806404F132045FEA915C3FF4BF
:10044000D8AE4FF003025FEADC0C18BF03325FEA5C
:10045000DC0C18BF033202EBDC02C2F1200300FA0D
:1004600003FC20FA02F001FA03FE40EA0E0021FA32
:1004700002F11444BDE600BF70B54FF0FF0C4CF420
:10048000E06C1CEA11541DBF1CEA135594EA0C0FD2
:1004900095EA0C0F00F0DEF82C4481EA030621EA0D
:1004A0004C5123EA4C5350EA013518BF52EA033548
:1004B00041F4801143F4801338D0A0FB02CE4FF0FA
:1004C0000005E1FB02E506F00042E0FB03E54FF02A
:1004D0000006E1FB03569CF0000F18BF4EF0010E22
:1004E000A4F1FF04B6F5007F64F5407404D25FEA1E
:1004F0004E0E6D4146EB060642EAC62141EA5551D1
:100500004FEAC52040EA5E504FEACE2EB4F1FD0C12
:1005100088BFBCF5E06F1ED8BEF1004F08BF5FEA90
:10052000500E50F1000041EB045170BD06F0004642
:1005300046EA010140EA020081EA0301B4EB5C04EF
:10054000C2BFD4EB0C0541EA045170BD41F48011E7
:100550004FF0000E013C00F3AB8014F1360FDEBF0C
:10056000002001F0004170BDC4F10004203C35DAE8
:100570000C341BDC04F11404C4F1200500FA05F36B
:1005800020FA04F001FA05F240EA020001F000420C
:1005900021F0004110EBD37021FA04F642EB060182
:1005A0005EEA430E08BF20EAD37070BDC4F10C04AC
:1005B000C4F1200500FA04F320FA05F001FA04F270
:1005C00040EA020001F0004110EBD37041F100015C
:1005D0005EEA430E08BF20EAD37070BDC4F1200567
:1005E00000FA05F24EEA020E20FA04F301FA05F2CF
:1005F00043EA020321FA04F001F0004121FA04F277
:1006000020EA020000EBD3705EEA430E08BF20EA46
:10061000D37070BD94F0000F0FD101F00046400080
:1006200041EB010111F4801F08BF013CF7D041EA02
:10063000060195F0000F18BF704703F00046520006
:1006400043EB030313F4801F08BF013DF7D043EAD7
:100650000603704794EA0C0F0CEA135518BF95EA8D
:100660000C0F0CD050EA410618BF52EA4306D1D114
:1006700081EA030101F000414FF0000070BD50EA33
:10068000410606BF1046194652EA430619D094EABD
:100690000C0F02D150EA013613D195EA0C0F05D1A7
:1006A00052EA03361CBF104619460AD181EA0301FB
:1006B00001F0004141F0FE4141F470014FF00000B3
:1006C00070BD41F0FE4141F4780170BD70B54FF04E
:1006D000FF0C4CF4E06C1CEA11541DBF1CEA1355CE
:1006E00094EA0C0F95EA0C0F00F0A7F8A4EB0504B0
:1006F00081EA030E52EA03354FEA013100F08880A7
:100700004FEA03334FF0805545EA131343EA12636F
:100710004FEA022245EA111545EA10654FEA002624
:100720000EF000419D4208BF964244F1FD0404F5DD
:10073000407402D25B084FEA3202B61A65EB030539
:100740005B084FEA32024FF480104FF4002CB6EBF6
:10075000020E75EB030E22BFB61A754640EA0C0076
:100760005B084FEA3202B6EB020E75EB030E22BFB6
:10077000B61A754640EA5C005B084FEA3202B6EBF7
:10078000020E75EB030E22BFB61A754640EA9C00B6
:100790005B084FEA3202B6EB020E75EB030E22BF86
:1007A000B61A754640EADC0055EA060E18D04FEA44
:1007B000051545EA16754FEA06164FEAC30343EAE4
:1007C00052734FEAC2025FEA1C1CC0D111F4801FB1
:1007D0000BD141EA00014FF000004FF0004CB6E7AA
:1007E00011F4801F04BF01430020B4F1FD0C88BF49
:1007F000BCF5E06F3FF6AFAEB5EB030C04BFB6EB54
:10080000020C5FEA500C50F1000041EB045170BD46
:100810000EF0004E4EEA113114EB5C04C2BFD4EB73
:100820000C0541EA045170BD41F480114FF0000EF7
:10083000013C90E645EA060E8DE60CEA135594EA73
:100840000C0F08BF95EA0C0F3FF43BAF94EA0C0F76
:100850000AD150EA01347FF434AF95EA0C0F7FF4EB
:1008600025AF104619462CE795EA0C0F06D152EA3F
:1008700003353FF4FDAE1046194622E750EA410623
:1008800018BF52EA43067FF4C5AE50EA41047FF434
:100890000DAF52EA43057FF4EBAE12E74FF0FF3C99
:1008A00006E000BF4FF0010C02E000BF4FF0010C6A
:1008B0004DF804CD4FEA410C7FEA6C5C4FEA430CE3
:1008C00018BF7FEA6C5C1BD001B050EA410C0CBF32
:1008D00052EA430C91EA030F02BF90EA020F002094
:1008E000704710F1000F91EA030F58BF994208BFFB
:1008F00090422CBFD8176FEAE37040F001007047B8
:100900004FEA410C7FEA6C5C02D150EA013C07D10E
:100910004FEA430C7FEA6C5CD6D152EA033CD3D059
:100920005DF8040B704700BF8446104662468C4653
:100930001946634600E000BF01B5FFF7B7FF002886
:1009400048BF10F1000F01BD4DF808EDFFF7F4FFAF
:100950000CBF012000205DF808FB00BF4DF808ED3A
:10096000FFF7EAFF34BF012000205DF808FB00BF5D
:100970004DF808EDFFF7E0FF94BF012000205DF87F
:1009800008FB00BF4DF808EDFFF7CEFF94BF012034
:1009900000205DF808FB00BF4DF808EDFFF7C4FF2D
:1009A00034BF012000205DF808FB00BF4FEA410280
:1009B00012F5001215D211D56FF47873B3EB6252B1
:1009C00012D94FEAC12343F0004343EA505311F0D8
:1009D000004F23FA02F018BF404270474FF000006A
:1009E000704750EA013005D111F0004008BF6FF0A8
:1009F000004070474FF00000704700BF4A0011D21E
:100A000012F5001211D20DD56FF47873B3EB625268
:100A10000ED44FEAC12343F0004343EA505323FA74
:100A200002F070474FF00000704750EA013002D1E9
:100A30004FF0FF3070474FF0000070474FEA41021F
:100A4000B2F1E04324BFB3F5001CDCF1FE5C0DD92C
:100A500001F0004C4FEAC0024CEA5070B2F1004F76
:100A600040EB830008BF20F00100704711F0804F79
:100A700021D113F13872BCBF01F00040704741F43E
:100A800080114FEA5252C2F11802C2F1200C10FA42
:100A90000CF320FA02F018BF40F001004FEAC12326
:100AA0004FEAD32303FA0CFC40EA0C0023FA02F3CA
:100AB0004FEA4303CCE77FEA625307D150EA0133A0
:100AC0001EBF4FF0FE4040F44000704701F0004070
:100AD00040F0FE4040F40000704700BF80F000404E
:100AE00002E000BF81F0004142001FBF5FEA410306
:100AF00092EA030F7FEA226C7FEA236C6AD04FEA06
:100B00001262D2EB1363C1BFD2184140484041404A
:100B1000B8BF5B42192B88BF704710F0004F40F4FC
:100B2000000020F07F4018BF404211F0004F41F418
:100B3000000121F07F4118BF494292EA030F3FD0E4
:100B4000A2F1010241FA03FC10EB0C00C3F12003F7
:100B500001FA03F100F0004302D5494260EB400086
:100B6000B0F5000F13D3B0F1807F06D340084FEAF1
:100B7000310102F10102FE2A51D2B1F1004F40EBE6
:100B8000C25008BF20F0010040EA0300704749004E
:100B900040EB0000013A28BFB0F5000FEDD2B0FAEB
:100BA00080FCACF1080CB2EB0C0200FA0CF0AABF0E
:100BB00000EBC25052421843BCBFD04018437047AC
:100BC00092F0000F81F4000106BF80F400000132B2
:100BD000013BB5E74FEA41037FEA226C18BF7FEA89
:100BE000236C21D092EA030F04D092F0000F08BFCB
:100BF0000846704790EA010F1CBF0020704712F0B2
:100C00007F4F04D1400028BF40F00040704712F1F0
:100C100000723CBF00F50000704700F0004343F055
:100C2000FE4040F4000070477FEA226216BF08468B
:100C30007FEA23630146420206BF5FEA412390EA4E
:100C4000010F40F4800070474FF0000304E000BF44
:100C500010F0004348BF40425FEA000C08BF7047F5
:100C600043F0964301464FF000001CE050EA0102B9
:100C700008BF70474FF000030AE000BF50EA0102CE
:100C800008BF704711F0004302D5404261EB4101BB
:100C90005FEA010C02BF84460146002043F0B643E0
:100CA00008BFA3F18053A3F50003BCFA8CF2083A05
:100CB000A3EBC25310DB01FA02FC634400FA02FC0E
:100CC000C2F12002BCF1004F20FA02F243EB020015
:100CD00008BF20F00100704702F1200201FA02FC77
:100CE000C2F1200250EA4C0021FA02F243EB02006A
:100CF00008BF20EADC7070474FF0FF0C1CEAD052AE
:100D00001EBF1CEAD15392EA0C0F93EA0C0F6FD06E
:100D10001A4480EA010C400218BF5FEA41211ED04C
:100D20004FF0006343EA501043EA5111A0FB013138
:100D30000CF00040B1F5000F3EBF490041EAD3710D
:100D40005B0040EA010062F17F02FD2A1DD8B3F189
:100D5000004F40EBC25008BF20F00100704790F0F8
:100D6000000F0CF0004C08BF49024CEA502040EA4A
:100D700051207F3AC2BFD2F1FF0340EAC250704710
:100D800040F400004FF00003013A5DDC12F1190F4E
:100D9000DCBF00F000407047C2F10002410021FAC0
:100DA00002F1C2F1200200FA02FC5FEA310040F1D8
:100DB000000053EA4C0308BF20EADC70704792F051
:100DC000000F00F0004C02BF400010F4000F013A89
:100DD000F9D040EA0C0093F0000F01F0004C02BF84
:100DE000490011F4000F013BF9D041EA0C018FE7F3
:100DF0000CEAD15392EA0C0F18BF93EA0C0F0AD0F9
:100E000030F0004C18BF31F0004CD8D180EA01001E
:100E100000F00040704790F0000F17BF90F0004FB7
:100E2000084691F0000F91F0004F14D092EA0C0F99
:100E300001D142020FD193EA0C0F03D14B0218BF2C
:100E4000084608D180EA010000F0004040F0FE4072
:100E500040F40000704740F0FE4040F4400070470E
:100E60004FF0FF0C1CEAD0521EBF1CEAD15392EA8D
:100E70000C0F93EA0C0F69D0A2EB030280EA010C7D
:100E800049024FEA402037D04FF0805343EA111116
:100E900043EA10130CF000408B4238BF5B0042F174
:100EA0007D024FF4000C8B4224BF5B1A40EA0C0019
:100EB000B3EB510F24BFA3EB510340EA5C00B3EB4B
:100EC000910F24BFA3EB910340EA9C00B3EBD10F39
:100ED00024BFA3EBD10340EADC001B0118BF5FEA8B
:100EE0001C1CE0D1FD2A3FF650AF8B4240EBC250B4
:100EF00008BF20F0010070470CF0004C4CEA502075
:100F00007F32C2BFD2F1FF0340EAC250704740F4C3
:100F100000004FF00003013A37E792F0000F00F0B5
:100F2000004C02BF400010F4000F013AF9D040EA33
:100F30000C0093F0000F01F0004C02BF490011F4C7
:100F4000000F013BF9D041EA0C0195E70CEAD153BF
:100F500092EA0C0F08D142027FF47DAF93EA0C0FA6
:100F60007FF470AF084676E793EA0C0F04D14B028A
:100F70003FF44CAF08466EE730F0004C18BF31F03C
:100F8000004CCAD130F000427FF45CAF31F0004336
:100F90007FF43CAF5FE700BF4FF0FF3C06E000BFCF
:100FA0004FF0010C02E000BF4FF0010C4DF804CDF2
:100FB0004FEA40024FEA41037FEA226C18BF7FEA02
:100FC000236C11D001B052EA530C18BF90EA010F04
:100FD00058BFB2EB030088BFC81738BF6FEAE17093
:100FE00018BF40F0010070477FEA226C02D15FEA2F
:100FF000402C05D17FEA236CE4D15FEA412CE1D09B
:101000005DF8040B704700BF844608466146FFE761
:101010000FB5FFF7C9FF002848BF10F1000F0FBD43
:101020004DF808EDFFF7F4FF0CBF012000205DF83C
:1010300008FB00BF4DF808EDFFF7EAFF34BF0120C1
:1010400000205DF808FB00BF4DF808EDFFF7E0FF5A
:1010500094BF012000205DF808FB00BF4DF808EDAB
:10106000FFF7D2FF94BF012000205DF808FB00BF0E
:101070004DF808EDFFF7C8FF34BF012000205DF8F0
:1010800008FB00BF4FEA4002B2F1FE4F0FD34FF012
:101090009E03B3EB12620DD94FEA002343F00043E5
:1010A00010F0004F23FA02F018BF404270474FF093
:1010B0000000704712F1610F01D1420205D110F01A
:1010C000004008BF6FF0004070474FF000007047CD
:1010D0007BB972B90029BEBF00204FF0004106E085
:1010E00008BF00281CBF6FF000414FF0FF3000F038
:1010F00057B8ADF1080C6DE904CE002909DB002BCF
:101100001ADB00F069F8DDF804E0DDE9022304B041
:101110007047404261EB4101002B1BDB00F05CF8A3
:10112000DDF804E0DDE9022304B0404261EB410157
:10113000524263EB43037047524263EB430300F0B8
:101140004BF8DDF804E0DDE9022304B0404261EB36
:1011500041017047524263EB430300F03DF8DDF874
:1011600004E0DDE9022304B0524263EB430370471D
:1011700053B94AB9002908BF00281CBF4FF0FF31FE
:101180004FF0FF3000F00CB8ADF1080C6DE904CE63
:1011900000F022F8DDF804E0DDE9022304B0704736
:1011A000704700BF10F8012B11F8013B012A28BF3E
:1011B0009A42F7D0D01A7047034611F8012B03F872
:1011C000012B002AF9D17047034613F8012B002A9E
:1011D000FBD1181A013870472DE9F04786468C4636
:1011E0000846089E154674461946002B40F0C280FA
:1011F0008542B2FA82F245D94AB1C2F1200300FA1F
:1012000002FC2EFA03F3954043EA0C0C94404FEA9B
:10121000154EA8B2BCFBFEF8230C0EFB18CC08FB45
:1012200000F943EA0C43994528D9EB1808F1FF3738
:1012300004D2994502D9A8F102072B44A3EB090374
:10124000A4B2B3FBFEFC0EFB1C330CFB00F044EA23
:101250000344A04214D92C190CF1FF3304D2A0424C
:1012600002D9ACF102032C44241A43EA07401EB110
:10127000D440002334607360BDE8F0874746DDE763
:101280006346F1E792BB431B01214FEA154EAFB213
:10129000B3FBFEFC200C0EFB1C330CFB07F840EAF2
:1012A0000343984562D9EB180CF1FF3004D29845FE
:1012B00002D9ACF102002B44A3EB0803A4B2B3FBA8
:1012C000FEFC0EFB1C330CFB07F744EA0344A74269
:1012D0004ED92C190CF1FF3304D2A74202D9ACF13C
:1012E00002032C44E41B43EA0040C0E7C2F12003A0
:1012F00020FA03F1954090402EFA03F303434FEA9E
:10130000154EAFB2B1FBFEFC0EFB1C10190C0CFB12
:1013100007F841EA0041884504FA02F422D9691825
:101320000CF1FF3004D2884502D9ACF10200294407
:10133000A1EB08019BB2B1FBFEFC0EFB1C110CFBE8
:1013400007F743EA01439F420ED9EB180CF1FF3136
:1013500004D29F4202D9ACF102012B44DB1B41EACB
:10136000004192E76046E3E76146F7E76046A3E79E
:101370006346B7E7834206D916B9002108467BE7E2
:10138000C6E900E0F9E7B3FA83F78FB9834201D3E6
:10139000724508D8BEEB020460EB030301209C46B3
:1013A0001EB9002168E73846FAE7C6E9004CF8E7BD
:1013B000C7F1200CBB4022FA0CF41C432EFA0CF1AE
:1013C00020FA0CF3B84001434FEA14490EFA07F52E
:1013D000B3FBF9F81FFA84FE09FB18300B0C08FB6D
:1013E0000EFA43EA00439A4502FA07F240D9E3189D
:1013F00008F1FF3004D29A4502D9A8F10200234433
:10140000A3EB0A0389B2B3FBF9F809FB183308FB15
:101410000EFE41EA03418E452CD9611808F1FF33D5
:1014200004D28E4502D9A8F10203214443EA0040C8
:10143000A0FB0298A1EB0E014145CE46434602D3E4
:1014400006D14D4504D2B9EB020E68EB0403013816
:10145000002EA6D0B5EB0E0261EB030101FA0CFCE5
:1014600022FA07F34CEA0303F940C6E9003198E792
:101470004046C5E74346D9E72DE9F047064688B020
:101480000F4690463AF0D7FA4FF47A73A0FB034523
:1014900003FB0155E40B012F44EA45444FEAD535DF
:1014A00007D1294922462B4630461FF0A0FD0020D7
:1014B00012E0D8F8047025483946FFF773FE70B182
:1014C00023483946FFF76EFE48B1304621493A4677
:1014D0001FF0A9FD6FF0040008B0BDE8F0872046BA
:1014E000294617A3D3E90023FFF7F2FD05460C4672
:1014F00010461946184A0023FFF7EAFD80460F46BA
:10150000104619464EF660220023FFF7E1FD8246A1
:101510008946104619464FF47A720023FFF7D8FD2A
:10152000CDE902A9CDE90623CDE90401CDE9008783
:101530000A492A46234630461FF059FDB7E700BF47
:10154000005C2605000000008CE303009DE303001F
:10155000A0E30300A9E3030080EE3600C1E303002B
:1015600070B506461446CD17A1FB020104FB051118
:101570000A220023FFF7ACFD0F4D80FB05450AA3AF
:10158000D3E9002320462946FFF7A2FD08A3D3E9AB
:101590000023306029462046FFF79AFD074A0023C2
:1015A000FFF796FD726070BD00209BF35E10000097
:1015B00080A8120100000000D8EF2F0040420F0069
:1015C00003292DE9F04105460C4604D0072973D0C4
:1015D0006FF085004CE0002A52D0072AF8D15868F5
:1015E0001A68614BC117C2FB0301012871F10003A6
:1015F0005BDBD5F804805D4B98F81A6098F91A7097
:10160000C01841F1000154A3D3E90023F609FFF704
:101610005FFD76B2002E14BF04230223984229D026
:10162000002E14BF20231023984225D0002E14BF73
:1016300008230423984221D0002E14BF102308232E
:10164000984232D1E6B2314640462D6921F013F975
:10165000002824DB464BAE7733F81430002F4FF0D0
:101660003D02AABFA3FB023253435B08EB6000209C
:10167000BDE8F0810024E5E70124E3E70224E1E787
:1016800019883C4B14461F4633F8022B914209D867
:1016900068682E69E1B221F062FA002808DA6FF07A
:1016A0000400E5E701340B2CEED16FF01500DFE705
:1016B00037F81430B383DAE7002A3AD0072A87D103
:1016C0005A681968284BD017C1FB0320B424A2FB29
:1016D0000431012A04FB001170F100001DDB2648D3
:1016E00018181FA3D3E9002341F10001FFF7F0FC14
:1016F000224B002433F8022B904216D168682E69E1
:10170000E1B221F0CFF80028C9DB1D4B33F81430CB
:1017100041F217125343B361A9E71A48181861F14F
:1017200000010FA3D3E90023E0E70134072CE1D146
:10173000BBE719880F4B33F8020B814206D8686863
:10174000D1B221F07AFA002891DAA8E701320B2A07
:10175000F1D1AAE7AFF300803AA3950000000000A2
:10176000D8EF2F000000000040420F009DD14A003A
:101770006CE0030074E00300ECF717005EE0030088
:1017800050E003001408E8FF2DE9F74F032906692C
:10179000144605D90B1F032B53D96FF0850023E0A6
:1017A0000229F7683A4D22D0032923D0012914BF1A
:1017B000B6F90460B6F90660A6FB076786FB056507
:1017C00031A3D3E9002330462946FFF781FC314A93
:1017D0002060002330462946FFF77AFC2D4A00237B
:1017E000FFF776FC6260002003B0BDE8F08FB6F929
:1017F0000860E1E702F11803DFF898A001930236D0
:101800004FF0000B36F9028FA8FB078388FB059881
:101810001DA3D3E9002348464146FFF759FC524631
:1018200044F8080B5B4648464146FFF751FC5246D8
:101830005B46FFF74DFC019B44F8042C9C42E1D130
:10184000D1E70629B5690CD007290ED0052914BFA8
:10185000B6F91010B6F912102A462046FFF780FE9E
:10186000C1E7B6F914102A46F7E70E3602F1180759
:10187000204636F9021F08342A46FFF771FEA742B8
:10188000F6D1B0E7AFF300800010A5D4E800000067
:101890003AA3950040420F002DE9FF47B04F21F0D9
:1018A0000042BA4204460D464FEAD17632D9AD4FD6
:1018B000BA4216D894A3D3E90023FFF76DF8074680
:1018C00010BB93A3D3E9002320462946FFF746F82F
:1018D000002800F09E80384604B0BDE8F0473AF09A
:1018E0004BBAC1F313030343024605D00B46FEF780
:1018F0000DFC04460D4602E0002E40F0FF8020461D
:10190000294604B0BDE8F087002004B0BDE8F047E8
:101910001EF052BB944B9A4240F2A780934B9A42DE
:1019200077D8934B03EBC603D3E90023FEF7ECFB18
:10193000904BF4002344D3E90034CDE90034C6F1E0
:10194000010A80468946AAEB060ADDE900234046E3
:101950004946FEF7D9FB04460D4622462B46204653
:101960002946FEF789FD6CA3D3E9002306460F46FE
:10197000FEF782FD6AA3D3E90023FEF7C5FB3246DA
:101980003B46FEF779FD68A3D3E90023FEF7BEFBD3
:1019900032463B46FEF770FD65A3D3E90023FEF710
:1019A000B3FB32463B46FEF767FD63A3D3E9002352
:1019B000FEF7ACFB32463B46FEF75EFD02460B46A9
:1019C00020462946FEF7A0FB02460B4606460F4678
:1019D00020462946FEF750FDCDE90201BAF1000F7D
:1019E0005AD100224FF0804330463946FEF78CFB37
:1019F00002460B46DDE90201FEF768FE22462B4651
:101A0000FEF782FB02460B4600205B49FEF77CFB9B
:101A10006FE75A4B204603EBC606294648A3D3E995
:101A20000023FEF729FDD6E90023FEF76FFBFEF742
:101A3000BDFF8246FEF7B6FC43A3D3E9002306466A
:101A40000F46FEF719FD02460B4620462946FEF7D3
:101A50005BFB3FA3D3E900238046894630463946E5
:101A6000FEF70AFDCDE900016FE7454B9A420ED81B
:101A700039A3D3E90023FEF749FB3F4B0022FEF7D1
:101A80008BFF38B13C4B0022204629462FE74FF010
:101A9000000A62E7824660E732463B4600204FF08C
:101AA0008041FEF731FB02460B46DDE90201FEF7FD
:101AB0000DFE02460B46DDE90001FEF725FB42461E
:101AC0004B46FEF721FB0B4602462B490020FEF752
:101AD0001BFB0B466FF47F718A45064603DB3446D9
:101AE00003EB0A550BE70AF57A7A03EB0A51304605
:101AF00000224FF0B873FEF7BFFCFAE60024002581
:101B0000FDE600BFAFF30080EF39FAFE422E8640BB
:101B100051302DD5104987C0D0A4BE726937663EBA
:101B2000F16BD2C541BDBB3E2CDE25AF6A56113FDD
:101B300093BDBE166CC1663F3E5555555555C53FC4
:101B4000FE822B654715F73F0000E0FE422EE63F80
:101B5000763C7935EF39EA3D9C7500883CE4377E68
:101B6000412E8640FFFFEF7F422ED63FB1A2F03FCD
:101B700098C6030088C603000000F03FA8C6030013
:101B8000FFFFEF3D0000000030F000422DE9F84F6C
:101B90000146034604D1BDE8F84F01201EF018BAF3
:101BA000002803DABDE8F84F1EF01ABAB0F1FF4F73
:101BB00003DBFEF799FFBDE8F88FB0F5000F35DACB
:101BC0004FF09841FFF798F86FF018020346C3F3FF
:101BD0001604DE15764B234403F400007F3E80F0AC
:101BE0007E5016444FF07E51204306EBD356FEF74D
:101BF00079FF704B04F10F0213400546002B3ED1D4
:101C00000021FFF70DFA98B1002E00F0C880304691
:101C1000FFF71EF868490546FFF76EF86749044666
:101C20002846FFF769F801462046C2E70022CEE7C2
:101C30005DA1D1E90001FEF701FF2946FFF75CF83D
:101C400001464FF07C50FEF74DFF294604462846DA
:101C5000FFF752F801462046FFF74EF804460EB94A
:101C600021466FE03046FEF7F3FF53490746FFF782
:101C700043F8524906463846FFF73EF872E04FF007
:101C80008041FEF731FF01462846FFF7E9F881461B
:101C90003046FEF7DDFF494680464846FFF72CF800
:101CA00001468246FFF728F84549DFF818B1074694
:101CB000FFF722F84449FEF717FF3946FFF71CF8F3
:101CC0004249FEF711FF3946FFF716F84049FEF783
:101CD0000BFF5146FFF710F83E4982463846FFF7A2
:101CE0000BF83D49FEF700FF3946FFF705F83B4981
:101CF000FEF7FAFE3946FEF7FFFF01465046FEF7B3
:101D0000F3FEC4F55713A34403F5227343EA0B0310
:101D1000002B074630DD4FF07C512846FEF7ECFFE4
:101D20002946FEF7E9FF014604463846FEF7DCFE89
:101D30004946FEF7E1FF074646B901462046FEF751
:101D4000D1FE01462846FEF7CDFE34E71A4940464B
:101D5000FEF7D2FF194906464046FEF7CDFF394649
:101D6000FEF7C2FE01462046FEF7BCFE2946FEF7FE
:101D7000B9FE01463046E6E701462846FEF7B2FEC8
:101D80004946FEF7B9FF0446002E3FF469AF0A4901
:101D90004046FEF7B1FF0949064640466CE7002081
:101DA00009E700BFAFF30080555555555555D53F50
:101DB00020FB4A00F0FF7F008071313FD1F71737D9
:101DC0009788173E305CCFFF25333A3E2549923E37
:101DD000ABAA2A3F4FD01C3E298E633ECDCCCC3ED1
:101DE00008B5034903481DF049FD002008BD00BFA8
:101DF000E6E20300F8E2030070B5204B82689A42E5
:101E000016DDD0E90016012976F1000503F1010382
:101E100092FBF3F34FEAE3741DDAC91844EB0604AE
:101E2000C0E90014164901FB03238360012070BD43
:101E3000002AFBDAD0E900410029124EA3EB02038D
:101E4000B3FBF6F310DA01F100459C4275F1000591
:101E50000ADA0020EBE7CD439D426FF00045A5EB89
:101E60000605A541D9DAF4E7E41A61F1000106FBA1
:101E70000322C0E900418260D8E700BFFFC99A3B56
:101E8000003665C400CA9A3B30B50446EFF31185AD
:101E9000202383F31288BFF36F8F044B0FCB84E8AA
:101EA0000F0085F31188BFF36F8F30BD002800202D
:101EB00001281FB50C4605D0042822D06FF015006C
:101EC00004B010BD39F0B7FD174AC30BC0F30E00C4
:101ED000A0FB0202C00B43EA414340EA4240C90B67
:101EE000C4E90031A0606846FFF7CEFF694620468E
:101EF0001EF087FB18B90D4B0FCB84E80F000020B4
:101F0000DEE739F098FD084AC30BC0F30E00A0FBD2
:101F10000202C00B43EA414340EA4240C90BC4E914
:101F20000031A060EBE700BF00CA9A3BF0C5030098
:101F300001287FB50C4634D18A681B4B9A4230D8B1
:101F400039F079FDC20B42EA414252424FEAD133A5
:101F500063EB4303CDE90023144AC0F30E00A0FB5A
:101F60000202C30B43EA42436D465B42284602939A
:101F7000FFF742FF214628461EF043FBEFF3118690
:101F8000202383F31288BFF36F8F95E80F00084C6E
:101F900084E80F0086F31188BFF36F8F002004B030
:101FA00070BD6FF01500FAE7FFC99A3B00CA9A3B73
:101FB00000280020014B1B68184700BFB00000201C
:101FC000014B1860704700BFB000002030B585B0ED
:101FD00004460D4610220021684639F00DFE02230A
:101FE0008DF802302A46044B0193214668461DF0C5
:101FF0005FFD05B030BD00BFB51F000080B50546D0
:102000000E46174698461CF03DFE034639F0C4FEC6
:10201000DFF81890044649F8003042463046394609
:10202000A84754F8090003F0A9FF00BF080000000A
:102030002DE9F84344690569C76840F26C73E117FC
:102040000135E41841F10001022D8CBF002301236A
:10205000E41A61F100010029064607F1FF3751DA61
:102060006FF4C77020184FF4C8724FF0000361F18D
:102070000001FFF72DF8264B03FB0044D6E900834F
:10208000B6684FEAE37C4FF03C0E99466346C6FBC8
:102090000E93A9FB0EC60EFB0366A30840F26D1E4D
:1020A000022D0EFB043302463B448CBF6FF002004E
:1020B000092064270544B4FBF7F499201B1B154C39
:1020C00045431CEB080C4FF0050005F10205B5FB7C
:1020D000F0F5A2FB04202B4404FB010146EBE8765B
:1020E00098180D4A41F1000380180C4A63F100036F
:1020F000A0FB020102FB031110EB0C0041EB0601F7
:10210000BDE8F8834FF4C87200232046B1E700BF52
:1021100070FEFFFFB13A02009405F5FF8051010007
:1021200010B5FFF785FF024639F036FE0B4603492E
:10213000002444501046194610BD00BF0C0000009A
:102140002DE9F047058B04462807904611D4022953
:1021500005F0070540F0CC8020461EF0ACFA78B1BF
:102160000138218B042811D8DFE800F0C2106D85FA
:10217000950001290CBF45F0100545F02005258389
:1021800088F31188BFF36F8FBDE8F08701F0070A6D
:10219000AA4500F0A5800027B9463E46A368002B5B
:1021A00000F0BC8041F00801218388F31188BFF35F
:1021B0006F8FA168002900F0BA800D68002900F037
:1021C000B680D1F80480334652462046C047002DE1
:1021D00076D02B6829461D46F0E701F007035A1F09
:1021E000012A1BD8002221F00701062B276889B29B
:1021F000C4E9002209D13B4603E0628B01326283CD
:102200001B68002BF9D141F00201218320461EF00A
:1022100052FA00287AD041F0200176E0042B0AD14E
:1022200021F0070189B2218320461EF044FA10B143
:1022300041F020012183218B01F0070AAA454FD0EC
:102240000027B946AAE7236921F0070141F00601FA
:10225000062DD3F8009021832DD1B9F1000F3FD086
:1022600041F00801218388F31188BFF36F8F3A4949
:102270002046C84729E021F00701236941F0040105
:1022800089B2042DD3F804902183E6D000273E467E
:102290004FF0040A82E721F00701236941F00501AC
:1022A00089B2052DD3F808902183D6D000273E4669
:1022B0004FF0050A72E700273E464FF0060A6DE729
:1022C0002B4687E7B9F1000FD1D1EFF31188202316
:1022D00083F31288BFF36F8F238B23F008032383CC
:1022E000258BEA062ED525F01003238305F007057C
:1022F0006669218B002EBFF670AF00232768C4E902
:10230000003321F0070141F001012183218B01F00D
:10231000070AAA454FF000097FF440AF002F9CD078
:1023200041F00801218388F31188BFF36F8F002FDC
:10233000C8D03D6839463346524620461EF0E7F97C
:102340002F46F4E7AB067FF51BAF25F02003238370
:1023500005F0070500E700BF3B070200014B0360E3
:1023600000207047B8C6030010B5094B00211A467B
:102370001C78844204D15C6814B102EB811010BD5A
:102380000131042903F14003F2D10020F7E700BF37
:10239000B03600202DE9F34150F8283C10F82C6CA1
:1023A000103304460AD1036950F8202C980736D51B
:1023B000D2B9590715D5002344F8283C54F8283CD5
:1023C00010330BD054E9077554F8148C39F0B8F970
:1023D00000284FD02E48214639F096F902B0BDE8CA
:1023E000F08143F00403236154F8241C01AB304610
:1023F0001EF009FB10B16FF01503DDE7019A54F8E8
:10240000243C134444F8243C54F8203C9B1A44F8E0
:10241000203C54F81C3C134444F81C3CCEE754F8D0
:10242000241C01AB304604F041FD0028E3D1019D9E
:1024300054F8243C2B4444F8243C54F8203C5B1BC7
:1024400044F8203C54F81C3C2B4444F81C3C002D20
:10245000B1D0304604F0B4FDB5FBF0F303FB1055EA
:10246000002DA8D154F8203C002BA4D0304604F015
:1024700065FDA3E744F8180CA4F110001BF0B4FDAF
:10248000002DABD0424639463046A847A6E700BFEC
:10249000102800204B1E012B73B506460D460FD8A1
:1024A000FFF762FF044668B9012D09D101AB012293
:1024B0000DF10301304604F0F9FC019B002BF5D12E
:1024C00002B070BD39F03CF904F12C0108B1012DC6
:1024D00005D1084602B0BDE87040FFF75BBF034876
:1024E00002B0BDE8704039F00FB900BF10280020DD
:1024F0002DE9F74F06460191154698461EF0CBFA96
:10250000044600285BD1EFF3118A202383F312885D
:10251000BFF36F8FDFF8ACB00022002358461BF0EA
:1025200097FD70B9DFF8A090A70109EB84146368E8
:1025300013F1100F14D1019358461BF055FD019B68
:1025400006E00134042C0BF1400BE5D16FF00B03D6
:102550008AF31188BFF36F8F184603B0BDE8F08F80
:10256000019B2061C4E902350C9B63610D9BA36153
:1025700030466FF00F0309F80760C4F83C806360D1
:1025800004F01EFD58B1304604F01AFDB5FBF0F31F
:1025900003FB10551DB1E36B43F00403E36318F034
:1025A000020F07D007F12C010848494439F0ACF874
:1025B0000023CDE7304604F0C1FC0346C8E76FF0C6
:1025C0000F03C9E7CC360020B036002010280020C9
:1025D0000169012381F84B300B6833B191F8493020
:1025E0001BB10248083139F08FB87047102800201D
:1025F0000169012381F84A300B6833B191F8483002
:102600001BB10248083139F07FB87047102800200C
:1026100070B50569EFF31186202383F31288BFF3A9
:102620006F8FD5F890001EF0ABF9044686F3118841
:10263000BFF36F8F30B104480022002305F1180169
:102640001BF0AEFE204670BD1028002070B501239F
:1026500082F8483013680D4614463BB192F84A3070
:1026600023B10E4802F1080139F04EF8D4F8903049
:102670005A89DB889A4205D17DB904F1180140F6E8
:10268000CD4204E004F11801002DF8D00022BDE88D
:102690007040024800231BF083BE70BD102800204C
:1026A00070B50E4681880446C9B2154815461EF01D
:1026B000CEF910B394F900206378002A16DB202BA2
:1026C00004D0222B0ED06FF085000AE02B681A6828
:1026D00040F8102C9A8820F80C2C9B7900F80A3CC2
:1026E000002070BD638800F8093CF9E7212BEAD18E
:1026F0001038072328603360F2E76FF01200F0E72C
:10270000B437002008B5014603481EF0AEF910B1F9
:10271000012300F8073C08BDB43700200D4A0346EA
:102720000021A0F848101068C3F8940090889279AE
:10273000A3F8980083F89A2083F89C1083F89B10E4
:10274000A3F89E1083F8A010402203F14C0039F04A
:1027500053BA00BF38C6030010B504690023C4F89B
:10276000A8300C4BC4F8A400596804F1A80269B958
:10277000C3E9002204F10800074938F0A9FF04F179
:102780001800064938F0D0FF002010BD0A605A60DA
:10279000F0E700BFB4370020C10A0200252800007E
:1027A00073B504698DF80710002384F8483020259C
:1027B000EFF3118685F31288BFF36F8F0122D4F8EF
:1027C00090000DF107011EF0DBF886F31188BFF3CE
:1027D0006F8F012813D038F0B3FF10B994F8A130EF
:1027E000B3B90E4BBFF35B8F012253E8001F0029E2
:1027F00003D143E800200028F7D1BFF35B8F2122EB
:10280000002304F1180106481BF0CAFD02B070BD98
:102810000021212039F060F8CAE700BFB03700205E
:1028200010280020F0B5D0F88C305B681B6A1F7D43
:1028300085B0054638461EF02EF9064650BB95F881
:1028400086303BB3A86F0146C38831F80A2F9B1A24
:102850009BB2B3F5806F28BF4FF4806303AA1EF0CC
:1028600040F80446B0B18306A5F1180308BF00F193
:10287000FF3485F830600193074B0399009322469B
:1028800002233846FFF734FEA86F224600F10A0102
:102890001EF05DF805B0F0BD4D26000037B51446BA
:1028A0000A1E054621DDD4F88C0004F14C011EF00F
:1028B00067F8012384F8493023683BB194F84B3022
:1028C00023B1114804F1080138F01EFFD4F88C2020
:1028D0009388918912695B1A9BB2D31A3F2B04D853
:1028E000012384F8A03003B030BD94F89E30002B53
:1028F000F9D0064B009301940123402204F14C01CE
:102900002846FFF7F5FDEEE7102800209D2800007F
:10291000F7B50D4601461D481EF08DF8044610B36C
:102920000646691E56F8A4395F6805291BD8DFE8FA
:1029300001F01C1A031C222610F8061C99B9012369
:1029400000F8063C3B6A3246187BFFF7A7FF14F8F5
:102950005C2C42B93B6A187D0D4B00930196022313
:102960001146FFF7C5FD03B0F0BD304603B0BDE82A
:10297000F040FFF7D3BE012304F8053CF3E710F85D
:10298000053C002BEFD00023F6E700BFB437002052
:102990004D26000037B5094D0949002400944FF039
:1029A000FF334FF4806228461BF0BAFC05492846E5
:1029B0001BF020FD204603B030BD00BF10280020D2
:1029C00000AB002017E3030010B5044621F094FF8C
:1029D0000349024620461EF00AFB002010BD00BF3E
:1029E00037E3030073B5134600220192044601AA9F
:1029F00058680A2101F0D0FC019D95B920EAE074E5
:102A00004FF40046294640F2E7304FF47A72002333
:102A1000C4FB0601FEF7ACFB38F05EFF284602B0AF
:102A200070BD2A46024920461EF0FDFA019DF5E7D9
:102A300063E3030008B5034A03491EF0D8FA0020F7
:102A400008BD00BF53E403005AE4030007B50023A8
:102A50000090694604488DF804301CF075FA9DF822
:102A6000040003B05DF804FBBB0B020010B5044684
:102A700006F0AAFE0749024620461EF0B8FA204694
:102A800005491EF0B4FA054821461CF077FA0020EB
:102A900010BD00BF9CE40300BBE40300A12A0000BA
:102AA00070B58EB004460D46D0F8A86038F04EFEE2
:102AB000034639F071F9214A21491058214A002B67
:102AC00018BF1A460092204A2346844218BF0A467D
:102AD00028461E491EF08BFAD4E90A23CDE90023CB
:102AE000284694F90E30227B19491EF080FA06A977
:102AF000202220461BF08EFC236F164902462846F2
:102B00001EF075FA05A9204638F02EFE024628B1BF
:102B1000114928461EF06BFA0EB070BD059B642269
:102B2000F11A4A430091B2FBF6F20C49CDE9016279
:102B3000284632461EF05BFAEEE700BF08000000B0
:102B40000CEF0300C5E40300B6380400C8E403003A
:102B5000D4E4030000E5030017E5030044E50300A7
:102B6000F0B5002591B00446294608AF1C2209A8FB
:102B700039F042F8134E1A222021384639F03CF839
:102B8000214611481CF0FAF907AA4FF400613046BB
:102B900038F0DEFD079A0097C2F5006164234B43CD
:102BA000DB0A05934FF40063CDE90313CDE901324D
:102BB000204606492B46A6F140021EF018FA284688
:102BC00011B0F0BD00BC0020D12B000090E5030047
:102BD00070B50446D0F8A86088B00D4607A938F053
:102BE000C3FD024628B10F4928461EF000FA08B07E
:102BF00070BD204638F0AAFD079B0096F11ACDE97A
:102C00000131094B64224A43002818BF0346B2FB36
:102C1000F6F20649CDE90362284622461EF0E7F99E
:102C2000E5E700BF17E50300C5E40300D9E50300AD
:102C300038B5134605461022586800211CF0D2FE14
:102C40000446FFF703FF38B90E49224628461EF016
:102C5000EAF96FF0150038BD39F09EF80A4B1B58A1
:102C60009C4204D1094928461EF0DDF9F1E72046CF
:102C70001BF0A6FD2846064922461EF0B8F90020A2
:102C8000E9E700BF3DE603000800000058E6030046
:102C900080E6030038B51346054610225868002127
:102CA0001CF0A0FE0446FFF7D1FE38B90E492246BB
:102CB00028461EF0B8F96FF0150038BD39F06CF8F1
:102CC0000A4B1B589C4204D1094928461EF0ABF917
:102CD000F1E720461BF092FE2846064922461EF0E8
:102CE00086F90020E9E700BF3DE603000800000088
:102CF000BFE60300E5E6030038B51346054610229B
:102D0000586800211CF06EFE0446FFF79FFE38B99C
:102D10000E49224628461EF086F96FF0150038BD90
:102D200039F03AF80A4B1B589C4204D1094928460D
:102D30001EF079F9F1E7204603F020F9284606490C
:102D400022461EF054F90020E9E700BF3DE60300EB
:102D50000800000020E7030045E7030010B50C461B
:102D600000211EF024FC00B10068034A206000230B
:102D7000C4E90123E36010BD65E8030010B50C460B
:102D800000211EF018FC00B10068034A20600023F7
:102D9000C4E90123E36010BD65E8030070B5064691
:102DA000506815461EF00BFC044640B96A6810498D
:102DB00030461EF038F96FF01204204670BD38F02E
:102DC000C9FA30B16A680B4930461EF002F9002496
:102DD000F3E7204638F0B5FA044630B103466A6896
:102DE000054930461EF01FF9E7E76A680349EBE73B
:102DF0007DE7030092E70300B4E70300E1E7030087
:102E00002DE9F04F8FB0044601A80F4690461AF006
:102E1000A5FD019B242202FB003B08212B4A2046F2
:102E20001EF0CAF8019D5D4503D300200FB0BDE838
:102E3000F08F2E680EB1337833B9254A2B463021F6
:102E400002A81CF02DFD02AE022F07D1D8F8041005
:102E5000304638F024FF08B92435E4E71D4A3346EC
:102E6000082120461EF0A8F8284638F073FA1A4ABE
:102E70001A4B0821002808BF1346194A20461EF0A5
:102E80009BF82B6A002BE7D01E68002EE4D0336835
:102E9000002BE1D0134A082120461EF08DF8B246DF
:102EA0004FF000093368104A4B4505D80F4A0821F6
:102EB00020461EF081F8CFE75AF8043F082120464B
:102EC0001EF07AF809F10109ECE700BF14E80300ED
:102ED0001EE8030023E803000BE8030005E80300F5
:102EE0008BE7030028E8030024E8030079E50300EA
:102EF0001FB50C68D1E9043203944C6802948C68C5
:102F00000194C96800910133034902F26C721EF00A
:102F10006EF804B010BD00BFAFE80300F7B513783A
:102F20003A2B06460F46154614D1541C23783A2BEB
:102F300028D101340A2201A920461CF0DDFC019AA7
:102F40003860A242034617D01078A8B93C2B15D997
:102F500015490EE00A2201A928461CF0CDFC019C6F
:102F6000B860AC4208D023783A2B05D1172807D98E
:102F70000E4930461EF057F86FF0150003B0F0BD53
:102F80000134D3E70A2201A920461CF0B5FC019BBD
:102F90007860A342F0D01A783A2AEDD13B2801D9C3
:102FA0000349E6E75C1CC5E7EEE80300D0E8030050
:102FB000DEE803002DE9F04190B00D46044602A979
:102FC00001201746FEF774FF07A902A81CF0B0FB0A
:102FD000032D55D17D680A2201A928461CF08CFCDE
:102FE000019EB542804615D032782D2A12D1013685
:102FF0000A2201A930461CF07FFC019B9E4209D0A9
:103000001A782D2A06D1451E0B2D0CD928492046A9
:103010001EF009F820461EF03BF86FF01505284613
:1030200010B0BDE8F0815E1C0A2201A930461CF0F8
:1030300063FC019B9E42EDD01B78002BEAD1431E1E
:103040001E2B01D91B49E2E7A8F26C73CDE90B53A3
:10305000BA680A9007A92046FFF760FF0028D9D177
:1030600007A8FFF75DF8B1F1FF3F08BFB0F1FF3FE0
:10307000CDE9020108D1104920461DF0D4FFCCE76C
:10308000022DC7D17A68E5E700230493012002A945
:10309000FEF74EFF054628B10246084920461DF0BE
:1030A000C2FFBAE707A92046FFF722FFB7E700BF34
:1030B000FEE803000DE903001AE9030043E90300F9
:1030C0002DE9F04114468846074610226068002129
:1030D0001CF088FCB8F1020F064607D8254A2023C9
:1030E000082138461DF068FF336816E00A220021E7
:1030F000A0681CF077FCC5B21E4A2B460821384652
:103100001DF05AFFB8F1030F1AD1102D0CD0202D4D
:10311000EAD0082D0BD13378DBB2174A08213846A4
:103120001DF04AFF002009E033889BB2F5E73846DE
:10313000124A08211DF040FF6FF01500BDE8F08134
:10314000E068102200211CF04DFC0D4A03460446A5
:10315000082138461DF030FF102D06D0202D07D055
:10316000082DE4D1E4B23470DCE7A4B23480D9E7AE
:103170003460D7E788E90300B3E903009DE9030061
:10318000C4E903002DE9F04F87B000230193524BAF
:10319000DFF848A191460122074688461A6003F0ED
:1031A000C3F94FF0FF3520262C464946524640468B
:1031B00003F0DEF9411C06D16A1C41D1484938466A
:1031C0001DF031FF17E073281AD0772828D0612826
:1031D00011D1DFF810B101AADBF80000102101F0D5
:1031E000DBF8019B0546002BDFD0DBF800203E49D1
:1031F00038461DF018FF6FF0150007B0BDE8F08FDE
:10320000DFF8E0B001AADBF80000002101F0C4F80B
:10321000019B0446002BC8D0DBF800203349E7E7C8
:10322000DFF8C0B001AADBF80000002101F0B4F81B
:10323000019B0646002BB8D0DBF800202C49D7E7CD
:10324000631C01D12B49BAE75FFA86F8C6F3C406BE
:10325000002C3FD002AB29461A46A6EB050C0CE029
:10326000B8F1100F1DD0B8F1200F20D0B8F1080F21
:103270002AD10878187031443344A64203D80CEBA5
:1032800001001028ECD9102CA14628BF4FF01009DE
:1032900029464B46384600F065FF1035A4EB09047B
:1032A000D6E7088880B21870000A5870E3E708680B
:1032B00018704FEA102E83F801E04FEA104E000E0E
:1032C00083F802E0D870D6E70B4A082138461DF093
:1032D00073FE90E7204690E77001002012EA030099
:1032E00019EA0300C83F0020D8E90300EBE9030016
:1032F000FEE9030036EA03009DE9030070B50F4EB6
:10330000044633780D4671B123B1BDE870400C49D5
:103310001DF089BE012333700A4920461DF067FE67
:103320000123337004E083F001033370002BF3D1E9
:1033300029462046BDE870401DF0C4BEB0AA00205A
:1033400050EA03008BEA03002DE9F041DFF8F0803A
:103350003C4E05460C468F18A74201D1BDE8F081CE
:1033600098F8002014F8013B182A22D1112B20D103
:10337000354C364922680026284688F800601DF042
:1033800036FE28463146FFF7B9FF314B1878002842
:10339000E4D1304A23681168042B2EDC08B1236085
:1033A000116013F003012FD1126813681BBA136068
:1033B000D4E7A3F13002092A88F8003004D923F0B9
:1033C0002002413A052A04D83168234A5354013176
:1033D00031603368022BBFD110221F4800211CF03E
:1033E00001FB1E4A136803F8010B1360164A1368A9
:1033F0000133136000233360AEE7086800BA41F878
:10340000040B043B0120C7E75B4203F0030358BFF2
:103410005942022904D1126813885BBA9BB2C6E7ED
:1034200003299BD1106802681104C2F3074301F419
:103430007F010B4302F47F42134303608EE700BF1A
:10344000B1AA0020BC370020C0370020B5EA030035
:10345000B2AA0020C4370020B3AA0020C837002039
:103460002DE9F84F0C462B49DFF8AC80DFF8AC9023
:10347000DFF8ACB000230B602A4988F8003006461C
:103480000B601546012C2F4655F804AF1ED90222B9
:103490004946504638F0D5FB80B99AF80220003AE8
:1034A00018BF0122924420490222504638F0C9FB3D
:1034B00030B9012388F80030013CE3E70022F1E74E
:1034C00049465046FDF76EFEA8B904370022114662
:1034D00078681CF087FA154B00221146186078684E
:1034E0001CF080FA124B134918603046FFF706FFB4
:1034F0000020BDE8F88F9AF800202D2AE6D19AF82E
:103500000120002AE2D05246594630461DF06FFD98
:10351000D2E700BFBC370020B2AA0020CFEA0300E8
:10352000D5EA0300C0370020D2EA0300C8370020E4
:10353000C43700204933000013B5094837F00AFFAB
:1035400058B1084A0649126807480024009401232C
:1035500000F06EFE204602B010BD6FF01200FAE7D8
:1035600018BF0300E0C703007CC4030010B5446823
:10357000C4E90012A36042681346402153F8404B4F
:1035800053625163002302F13801C2E90413C2E916
:103590000A33C2E90633082113631162C2F8B83056
:1035A000A36823B11B6C13B1044920469847A36854
:1035B0001B6A0BB120469847002010BDA50C0200E5
:1035C00010B581680446183101F078F9A168034A02
:1035D00020461831BDE8104001F008B950EC030056
:1035E00038B58368D3F87832DB0704461AD44068CC
:1035F00003685B689847054620B9E0681EF092FBB7
:10360000A3681D75A3685B6C13B1294620469847D3
:10361000A36838F0C1FB0022C3F89822034B185866
:1036200002F0ACFC6FF00F05ECE700BF08000000F3
:1036300001491DF0E9BB00BF79E503002DE9F04F1A
:10364000A7B004465422002111A838F0D5FA00236F
:10365000CDE90533A3682046563302931EF0CBF81C
:1036600020461EF00FF810B96069FFF7E1FFA0686F
:1036700014220021183038F0BFFA20461DF05CFFFC
:10368000A168E068B1F85020563100261EF056FBC4
:1036900020461EF0E5FB4FF0FF38B246039611AF0F
:1036A000B3463546B146DDE90532012A6CD0132B0D
:1036B0006DD8B8F1000F2BD1BBF1000F0AD0204616
:1036C0001EF0EFFBA2681423563211A90DEB030084
:1036D0001DF0B1FDB9F1000F0CD099F81130FE2B9F
:1036E00008D1059B26AA02EB830252F8542C0AB19A
:1036F00001330593A068059D436A002B40F0B58017
:10370000C6B1C3699E422BD00D9600F1180522E088
:10371000029A0223394606A81DF08DFD06997A68A3
:103720000292034631B101290AD148B1694A2046C3
:103730001EF010F96FF00705284627B0BDE8F08F9E
:10374000059B002B32D0386801F0EAF898B166B1D9
:10375000A5680D9618350CAE0FCE0FC533682B60DB
:103760002046FFF72DFF0125E6E75B4A01212046B1
:103770001EF0F0F8DEE7059BC3B13A682946204603
:1037800001F070FA022809D1059B132B94D9069BEE
:10379000022B91D1514B524A0121C8E7032805D091
:1037A000059B013305934FF0010B7CE7039B2BB97D
:1037B000396807AA48461DF035FE0546043708F16A
:1037C000FF38A5B3EB68BBF1000F08D0FBB1204672
:1037D0001EF011F820461DF06CFF424AC6E7B3B157
:1037E000A368DDF814A0AE4603F1180CBEE80F0084
:1037F000ACE80F00DEF80030CCF80030AB6833B92D
:103800006B7CFE2B04BF95F8108008F1FF38D5F8CB
:1038100004C0BCF1000F08D0AE46BEE80F000CAEED
:103820000FC6DEF8003033606646A94603E0059B0C
:1038300063B101230393069BB8F1000F02D1022B61
:103840007FF431AF059B013305932CE7A368DB6A56
:1038500013B1DB68002BECD1234B0093234A119B5F
:10386000012120461EF076F8E3E790F82830A5EB1A
:103870000A05BBB190F829104FF6FF72FF2918BF57
:103880000A469D4202D313449D420BD98369184ACC
:10389000012120461EF05EF82046FFF791FE6FF0F2
:1038A000150549E701211DF0CEFAA0681DF0BFFA09
:1038B000A36811AA29465B6A02EB8A022046984750
:1038C0000546A0681DF0B7FAA06800211DF0BBFAFC
:1038D00032E700BF5EEC030072EC0300D3EC0300A0
:1038E0002AF6030090EC0300BFEC0300CCEF0300CA
:1038F000F7EC0300F7B504468068D0F878325A0731
:103900000D4605D500211DF0A9FAE0681EF0DCF98E
:10391000E368DB6873B9002D3BD0A66806F1560753
:1039200038461DF07EFA002835D0394606F5AB70D2
:10393000FDF742FCA268E0680DF106035632294605
:103940001EF0C5F958B9A06800F5AB715630FDF707
:1039500033FCA06856301DF064FAADF8060020462E
:103960001DF042FFA368D3F874329B0603D50B49C0
:1039700060691DF049FA204600F074FDA268BDF8A8
:103980000630A2F85230A2682046A2F850301DF04E
:1039900090FE03B0F0BD86F85601CBE73FC60300AA
:1039A00010B5836802221A7583689B6C0446BBB904
:1039B0001DF001FA8368D3F87832DB040BD50321BC
:1039C000084B094A1DF0C6FFA0686FF4805100F54E
:1039D0001E701DF00AFA2046BDE8104000F0C8BE77
:1039E00010BD00BF12ED030025E803002DE9F04FE4
:1039F00004468068B1B0012100F51E701DF0E6F9A3
:103A0000A3681B7D022B20D100230993A368606863
:103A10009E6C03681D6909AB0EB310221BA9A84751
:103A2000099B93B1A06801211DF00DFA099A1BA909
:103A30002046B047A06800211DF005FAA3689B6CE2
:103A4000002BE3D12046FFF7ABFFA0686FF0010128
:103A500000F51E7031B0BDE8F04F1DF0C6B901226F
:103A60000DF12301A847099B002BEED09DF92320DF
:103A70009DF82330A068002AC8DB427D032A00F2AB
:103A8000F482DFE812F0040075028C02F2020D2BC2
:103A900067D00A2B43D0B0F87822092B6FF3CA0203
:103AA000A0F8782272D029D8002B00F00381082BCF
:103AB000A06800F0E9810246D2F87412890740F14B
:103AC000F980013B162B00F2F580DFE813F0B70216
:103AD000FA01FE01F601B1021002F300F300F30057
:103AE000F30014021802F3002D02F3003202F30077
:103AF000F300F300F3003402F30049021B2BA0682B
:103B000041D07F2B00F0CC81A3F120015E29024639
:103B1000D2D801211DF0A2F99DF82310B8E0D0F809
:103B20007822C2F3C7022AB1D0F87822C2F3C702C2
:103B30000A2AC0D1B0F8782263F3CA02A0F878222A
:103B4000A568B5F85010C1B928461DF087F9E0689E
:103B50001EF0BAF86069FFF76BFD2046FFF720FF03
:103B600054E7D0F87822C2F3C702002AE2D0D0F896
:103B70007822C2F3C7020D2ADBE72046FFF75EFD7D
:103B8000C5F89C02E9E70123437593E0A068D0F8EB
:103B900074329B0740F18E8001211DF05FF9A0680F
:103BA000B0F85030FF2B00F08580B0F8522000F1C3
:103BB000560100F5AB7037F0F7FFA368B3F8522059
:103BC0001344002583F85651A2681BA9142302F55B
:103BD000AB720BA81DF02FFB0B9914296AD830ABE0
:103BE00003EB810343F8545CA368B3F85220002A26
:103BF00052D0134493F85530202B02D0093B042BAC
:103C00004AD800294BD100250A950A9B30AA02EB1D
:103C10008303002653F854AC50461DF002F9B34616
:103C20008146B046374616AA3946284600F07AFB48
:103C30000346002842D1012E68D10A9B30AA02EB2C
:103C4000830353F8540C1DF0ECF8A26806461832B2
:103C50004146284600F066FB056828461DF0E1F85D
:103C6000864205D0821B92B2A91920461DF0B9FEEA
:103C7000A068B0F85230034493F85630202B34D06B
:103C8000093B042B31D9D0F87432DF0732D420211C
:103C9000204600F035FD0DE00129B4D9013900209E
:103CA0000CAB009301900AAB1BAA1DF0E6FB054686
:103CB0000028AAD160691DF00BFAA7E61B680393E0
:103CC0004A465146184637F0BCFF60B9039B184678
:103CD000FDF77AFA584538BF58461FFA80FB002E88
:103CE00008BFB846013601379DE7012120461DF087
:103CF00014FDDFE700211DF0BBF82021204600F075
:103D0000FFFCA06801211DF0B3F8D3E70490D1D9DE
:103D10000A9A30AB03EB8202C14652F8543C03933B
:103D200018461DF07EF8A268049B0590A2F840306A
:103D30000496A26849461832284600F0F3FA039B1D
:103D4000D0F800A009F101094BB1BAF1000F06D07B
:103D5000059A1946504637F074FF0028E9D1A1684A
:103D6000BAF1000F4ED1A1F840A0049B013B04938F
:103D7000DFD16069FFF75CFC204600F0F9FC0A9B8C
:103D800030AA02EB830308F1010A53F8540C1DF02A
:103D900048F8414611AA8146284600F0C3FA074672
:103DA000A0683968FF2200F5AB7037F05CFF3B6814
:103DB00003934FF6FF77B84616AA514628460AF1F4
:103DC000010B00F0AFFA002852D0A168036801F29D
:103DD0005511002211F801EF985C704503D110B124
:103DE00001324245F6D1B9F1000F01D04A4507DB57
:103DF000BA4206F1FF36A8BF3A46012E97B237D035
:103E0000DA46D9E79A4806911DF00BF80699079112
:103E10004A8F00EB0B07BFB2121A504692FBF7F223
:103E200092B206921CF0FDFF0799069A3F1AB1F86C
:103E3000400000F1010CA1F840C0B0FBF2F102FB20
:103E4000110080B2BFB260B9894B8A4ACDF800A098
:103E5000062120461DF07EFD3946204600F0ECFA92
:103E600083E7854A5346062120461DF073FDF3E79C
:103E7000002F3FF41FAF0399A7EB090292B2494408
:103E800020461DF0AEFD15E7D0F874329E077FF591
:103E900011AF01211CF0E2FF20461DF0C3FD09E730
:103EA000D0F874329D077FF505AF01211CF0D6FFD5
:103EB000A368D3F874321807EED420461DF093FDA2
:103EC000F8E620461DF0A0FCF4E620461DF093FC29
:103ED00020461DF0D7FB10B96069FFF7A9FBA06869
:103EE00001211CF0BBFF2046FFF75AFDE2E6204609
:103EF0001DF093FCDEE620461DF09AFCDAE6D2F8CF
:103F000074329F0603D55D4960691CF07DFFA3688C
:103F1000D3F874329E0603D5594960691CF074FFCA
:103F2000204600F025FCC5E600212046FFF7E2FC14
:103F3000C0E60121F9E720461DF056FC20461CF0A2
:103F40003AFF0121A0681CF089FFA368D3F87432FE
:103F50009D067FF5AFAE4B4960691CF055FFA9E6A1
:103F6000204600F0F9FAA06801211CF077FFA1E6D5
:103F70005B2B01D1022307E6D0F87422900706D507
:103F8000622B08D14FF0FF3120461DF0EFFBA368F4
:103F900000225A758EE6662BF9D10121F4E7002242
:103FA0004275A268D2F8741289077FF52FAD313BB4
:103FB0001B2B3FF67FAE01A151F823F039400000E2
:103FC00045400000594000002D400000B53C000075
:103FD000B53C0000B53C0000B53C0000B53C00001D
:103FE000B53C0000B53C0000B53C0000B53C00000D
:103FF000B53C0000B53C0000B53C0000333F00007C
:10400000293F0000EF3E0000C33E0000B53C000029
:1040100031400000B53C00003D400000B53C0000D0
:10402000B53C0000B53C0000494000000323537537
:1040300020461DF0E0FB3DE60323537520461DF0AE
:10404000D3FB37E603235375A068D0F8741201F050
:10405000010181F0010156E603235375A368D3F8EB
:1040600074329B077FF526AE27E700238CE500BF5F
:104070000BEF030056ED030025E8030044C60300E0
:1040800049C603003FC603002DE9F341044680689A
:10409000154600F51E70002935D04FF480411CF004
:1040A00095FEA368DD646068036800219B689847FB
:1040B00070BB20461CF01AFF50BB174DDFF85C8028
:1040C0004FF0FF364FF0FF37A06800F51F70002259
:1040D0000721CDE9006737F039FDA0681CF0ABFE81
:1040E0002A46042120461CF0D2FE204642460121E9
:1040F0001CF0CDFE606803685B6903B19847A06857
:104100001CF095FEE0E76FF480411CF06EFEC8E7FE
:1041100002B0BDE8F08100BFE1350000ED390000DC
:1041200010B50B4904461CF062FF204609491CF0FB
:104130005EFF204608491CF05AFF204607491CF044
:1041400056FF2046064A002100F050FB002010BD1B
:104150005CED03009AED0300F9ED03004DEE030062
:10416000E7EE0300F8B517461E460A4629490446FD
:104170001CF03DFF3EB33A78274920461CF037FF3C
:1041800001256A0703D1254920461CF030FFAE42C5
:104190001ED97A5D204920461CF029FF0135102DDB
:1041A000EFD11F4920461CF022FFB6B91B4920461B
:1041B0001CF01DFF0125AE422B4610D817492046A2
:1041C0001CF015FF15E0174920461CF010FF0125D3
:1041D000144920461CF00BFFE0E700252B46FA5C53
:1041E0001149A2F120035F2B28BF2E2220461CF08C
:1041F000FEFE0135102D06D06B07DCD107492046A5
:104200001CF0F5FED7E720460849BDE8F8401CF051
:10421000EEBE00BFFDEE030004EF03000CEF030051
:104220000EEF03000AEF030030EF030010EF03006E
:104230002DE9F04104468068D0F8986288B088463D
:1042400015461F46002E52D14FF42872314637F0E2
:10425000D3FCE0681DF0EAFDA06800F51F7037F0A0
:1042600069FCA06800F522700122114637F0F4F9CC
:10427000A3691E60A068022100F51E701CF0A6FD57
:10428000A36850225A87A36818221A8721682046FB
:104290001CF0D7FEA368174A66F38205C3F8745270
:1042A0006068036841461D682346A8470546D0B9A3
:1042B000A36801221A75D4E9090100220023CDE97F
:1042C00006230E2303930E9B0495CDE901730094FE
:1042D000094B4FF400621AF05DF9A368C3F8980225
:1042E000216A1AF087F8284608B0BDE8F0816FF01F
:1042F0007705F8E7D90E02008940000010B50446A2
:1043000013460A460146064802F0CCF823691B7999
:1043100023B12046BDE810401CF0DABE10BD00BF3E
:10432000E910020038B50B46154648B91449154A3C
:10433000521AB3EB920F05D251F82350284638BDDC
:1043400084680CB90025F9E70F4A94420AD30F4A52
:10435000944207D218462268294690472B68002BC2
:10436000ECD1EFE70A4A944202D30A4A944205D3B9
:10437000246814225343E518E358F0E70133F8E7C3
:10438000A8C40300D8C40300DCC50300E4C50300CF
:10439000D8C40300DCC50300F7B503782D2B044611
:1043A000164605D16FF015033360002003B0F0BD51
:1043B00037F0F2FC0B4F00230546C3510A46204656
:1043C00001A91BF00FFBEB59222B02D16FF0210347
:1043D000EAE7002BE6D1019BA342E3D01B78002B38
:1043E000E4D0DFE70C0000008368D3F874329B064A
:1043F00003D5024940691DF026B970474FC6030036
:1044000001491DF020B900BF79E503000A1E0DDC4B
:104410000ED042238168D1F87412890608D5002A8B
:1044200004494069B8BF52421DF00DB94123F1E77C
:10443000704700BF2CEF03000A1E0DDC0ED0442392
:104440008168D1F87412890608D5002A04494069A8
:10445000B8BF52421DF0F7B84323F1E7704700BFE1
:104460002CEF03002DE9F0478568DFF868900446DB
:1044700005F15600FCF7A8FE002395F83C7086B2C3
:104480009846A268558FED1BB54209DB002E1FDD53
:10449000563360691049BDE8F0471A441DF0D3B89F
:1044A0001D442A44563392F856A082F85680A268DA
:1044B00060691A4449461DF0C6F8A3682B4483F886
:1044C00056A0A3685B8FDB1BF61A00272B46D8E7A4
:1044D000BDE8F0872AF6030025E8030008290A460C
:1044E00017D8836893F83E10914212D083F83E208B
:1044F0008368082AD3F8743205D0990609D505498E
:1045000040691DF0A0B89B0603D5034940691DF022
:104510009AB8704733EF030054C6030038B50D4610
:1045200009780446FFF7DAFF6A78072A11D8A368EA
:1045300093F83F1091420CD083F83F20A368D3F842
:1045400074329B0605D560690249BDE838401DF00C
:104550007AB838BD3CEF0300F8B58368B3F8502053
:104560000446002A55D0B3F85210002951D05531D5
:1045700003F156050B441846A84206D3014611F82C
:104580000169202E3CD0A8423CD286B29DB2AB1B22
:104590009BB2591C471CD21A0144384637F012FB13
:1045A000A268B2F85030711B13FA81F3A2F85030B0
:1045B000A368B3F850201344002283F8562009B2B0
:1045C00020461DF0AAF8A368D3F874329A0603D5E2
:1045D000104960691DF037F83B460F4A0821204614
:1045E0001DF0B8F92046FFF7FFFEA368D3F8743238
:1045F0009B060ED560690949BDE8F8401DF023B857
:104600000846B9E7014611F80169202EBDD00846D9
:10461000B9E7F8BD59C6030025E803005DC60300ED
:104620002DE9F84F04460F4690460AB1FFF7DCFE2D
:10463000A668D6F87432B6F852505B0724D505F157
:1046400056003044FCF7C0FD2A4E0546B5B9A368B4
:10465000B3F85020A3F85220A0681DF001F830B143
:10466000B8F1000F00D017B16069FFF7C9FE7942B9
:10467000204609B2BDE8F84F1DF04FB860693146D9
:104680001CF0E1FF013DE1E73046FCF79DFDB6F887
:104690005090738F19FA80F915FA80F0B0FBF3F29D
:1046A000B9FBF3F39A42AA461BD0134DA3684845C1
:1046B000CDDA5A8FB0FBF2F302FB1303461C13B999
:1046C0006069FFF79DFEA3685344204693F8563077
:1046D0000AF1010B2A4608211DF03CF9DA46304662
:1046E000E4E75635054A7319082120461DF032F9D2
:1046F000ADE700BFB638040030EF030025E8030043
:1047000013B583688DF80710D3F874220446D007D8
:1047100025D5B3F85210B3F850208A421FD0481C58
:10472000A3F852000B449DF8072083F85620A36895
:10473000D3F87412890710D5D3F8743260690B4925
:1047400013F0040F18BF2A221CF07DFF20461CF036
:1047500099FF10B16069FFF753FE02B010BD01224E
:104760000DF1070120461DF002F9F6E730EF0300D6
:1047700010B504468368094A02211DF0EBF8A368CE
:10478000D3F874329B0707D52046FFF76BFE20460F
:10479000BDE810401CF09CBF10BD00BF25E8030021
:1047A00001491DF067B900BF79E50300F8B50F4670
:1047B0005168044615461E4611B11A461DF067F9A8
:1047C000AB6883B131462046FFF736FE2046064AE5
:1047D0003B4608211DF0BEF8A968F21D2046BDE841
:1047E000F8401DF054B9F8BD45EF03002DE9F04F36
:1047F0000F46002189B0044616460D4603AA3846E6
:1048000001F10108FFF78EFDA8B98DB126B132463E
:10481000082120461DF09EF8DFF89090DFF890B058
:10482000002103AA384601F1010AFFF77BFD60B9B8
:1048300009B0BDE8F08F006810B1FCF7C5FC80B28C
:10484000854238BF05464146D8E7D0F80080B8F128
:10485000000F0FD098F8003063B14668154ACDE9D3
:1048600000584B46082120461DF074F826B96069AF
:10487000FFF796FF5146D4E74B465A46082120469B
:104880001DF068F8AB1DB2079BB209D131680A4A26
:10489000914205D1324641462046FFF787FFE9E7BE
:1048A0001A46314620461DF0F2F8E3E76AEF0300AE
:1048B00057EF030050EF0300C40BD286F7B50F6823
:1048C00005460E46EFB13846FCF77EFC84B2114B2C
:1048D000009308213B46104A28461DF03BF87168BA
:1048E000E31C9BB279B18A070DD108680B4A90424C
:1048F00009D10A463168284603B0BDE8F040FFF709
:1049000055BF3C46E3E71A46284603B0BDE8F040F1
:104910001DF0BDB866EF030057ED0300C40BD2864F
:1049200010B507490446FCF73DFC38B1054920465F
:10493000FCF738FCB0FA80F0400910BD0120FCE71C
:104940005CEF03005FEF030010B58368D3F87432A7
:104950009B06044603D5064940691DF008F9A36883
:1049600050225A87A36818221A87002010BD00BF62
:1049700061C6030008B5836902491A681CF037FB59
:10498000002008BD6DEF03002DE9F3410D490E4CE9
:104990000E4EDFF83C8005461CF029FB0022B44295
:1049A00002F1010703D3002002B0BDE8F081236AC1
:1049B0000093A36892B2414628461CF018FB2C34A1
:1049C0003A46ECE77DEF03007CC40300A8C4030073
:1049D00095EF030008B502491CF033FB002008BD29
:1049E0007AE5030073B50E4E04460025A268E06820
:1049F0000DF1060302F5AB7201211DF068F9BDF857
:104A00000600A36840B12A4603F5AB733146204641
:104A10001CF0EDFA0135E9E783F8560102B070BDEC
:104A2000A6EF030010B504461CF044FB0349024600
:104A300020461CF0DCFA002010BD00BFCBEA0300CA
:104A4000022907B50BD15368009312680B4B0C4930
:104A50001CF0E9FA6FF0150003B05DF804FB836801
:104A6000084AD3F87432084913F0020F074B18BFF5
:104A70001A461CF0BCFA0020EEE700BFB4EF0300BA
:104A8000C9EF0300B0EF0300D2EF030072E40300AC
:104A900010B58368D3F874329A06044603D50749E3
:104AA00040691DF064F8A368D3F874329B0603D5FF
:104AB000034960691DF05BF8002010BD68C6030063
:104AC0006DC60300F0B5012985B004460AD05368CD
:104AD000009312685D4B5E491CF0A5FA6FF015005B
:104AE00005B0F0BD8368D3F87432990603D55949EF
:104AF00040691DF03CF86FF0F9012046FFF786FC95
:104B0000FA212046FFF798FCA06800254FF4807238
:104B1000294600F5AB708DF80B5037F06DF84E4913
:104B200060691DF024F860691CF0D2FA4FF47A76BF
:104B30006068036801221F690DF10B0103ABB847E0
:104B4000039BEBB9013E4FF47A70B6B236F0DDFB51
:104B5000002EEDD1A368D3F874329B0603D53F49EC
:104B600060691DF004F8A3683D4950225A87A36884
:104B7000182220461A871CF048FA6FF00700AFE7AA
:104B80009DF80B20A3681B2A53D093F856111B29BC
:104B9000CED1522A4DD15A19002382F85631A66837
:104BA00096F857215B2A2BD106F25710022510F8F0
:104BB000011F2A463B2905F10105ADB223D1FF2A89
:104BC000C8D002F5AB7216FA82F1002211F8010F7B
:104BD00018BB86F85601FA2AA16828BFFA224A872C
:104BE000FA2BA26828BFFA231387A368D3F874327C
:104BF0009A0603D5194960691CF0B9FF00206FE7D8
:104C000086F85631A6E703EB8303303901EB430105
:104C1000B5F5807F8BB2CAD19CE7013502EB8202E9
:104C2000ADB2303800EB4200B5F5807F82B2CDD115
:104C300090E72B440135ADB2092D83F856217FF65C
:104C400077AFA368002283F8562183E7B4EF03000F
:104C5000C9EF030073C603001DF0030077C603000D
:104C6000E3EF03002DE9F04F074689B0154689466A
:104C700021B110461DF0E0F800285BD1032455E077
:104C80005C463CE029460AF5AB7037F008F806466A
:104C9000002854D0FCF798FA82B2601C01323146E9
:104CA000304436F08FFF22465946304636F07CFFBE
:104CB0004FF020033355BAF8543001331C44AAF89E
:104CC000544008F10108002401994B1C03AA4846EE
:104CD0000193FFF727FB0646E8B13168002228461A
:104CE0001EF0EAF90028EFD1D6F800B0D7F808A0F6
:104CF000BBF1000FC4D05846FCF766FA84B2BAF88C
:104D000054302344FF2BBDDD0E4A2B460321384689
:104D10001CF020FE0124B8F1000F07D0B8682A4625
:104D200000F1540100F5AB701CF055FB204609B0B2
:104D3000BDE8F08F4FF0000841460224C5E7022489
:104D4000E9E700BFE5F4030008B504481BF08BFC5D
:104D5000BDE8084002481BF086BC00BF40F50300D8
:104D600075F503002DE9F743174A184C184FDFF883
:104D70006480DFF86490082105461CF01DF9BC42F0
:104D800003D3002003B0BDE8F08366680023A26867
:104D9000B2420DD12BB923684A46082128461CF09F
:104DA0000BF90E4A082128461CF006F91834E6E7EC
:104DB00056F8043B1B6800932368424608212846A6
:104DC0001CF0FAF80123E2E7A3F503008C3D040090
:104DD0008C3D0400BCF50300D0F5030079E5030029
:104DE000F8B50A4A0A4C0B4E0B4F082105461CF039
:104DF000E3F8B44201D30020F8BD54F8083B3A462A
:104E0000082128461CF0D8F8F3E700BFEDF50300B1
:104E10008C3D04008C3D040004F603002DE9F743AB
:104E2000164A174C174EDFF86080DFF860900821B3
:104E300005461CF0C1F82746B44203D1002003B058
:104E4000BDE8F083E21BD21008FB02F25309BFF366
:104E50005B8F59F82330BFF35B8F02F01F010B41CA
:104E600054F8181B03F00103CDE900214433084A2C
:104E7000082128461CF0A0F8DEE700BF0EF603006C
:104E80008C3D04008C3D0400ABAAAAAA883A0020FD
:104E900022F6030000F01F0301229A400D4B400947
:104EA00003EB800359B1BFF35B8F53E8000F10434E
:104EB00043E800010029F8D1BFF35B8F7047D2436C
:104EC000BFF35B8F53E8000F104043E80001002957
:104ED000F2D0F7E7883A00202DE9F04F012989B098
:104EE000DFF8F0A03C4E02AF814698461BD13B4D07
:104EF000544607E0A4EB0A00C01041466843FFF7A0
:104F0000C9FF1834B442F5D1354A364B0821B8F1FF
:104F1000000F08BF13464846334A1CF04DF81C37B3
:104F2000BD46BDE8F08F481E6B46C1F35C01A3EBA4
:104F3000C103A6EB0A062949C7F80CD09D46F31019
:104F40004B4302ACBB60151D4FF0000B20F04046F8
:104F50005E451DD8234D224B04EB8606B8F1000FA9
:104F600008BF1D464FF0180BB44225D054F8040B6F
:104F7000B8604146FFF78EFFB86800950BFB00F064
:104F80001A4A5AF80030082148461CF015F8EBE799
:104F90002B460A2218687B6007F114011AF0ACFC5A
:104FA000002844F82B007B6805F1040507DA1A682D
:104FB0000F4948461CF037F8D7F80CD0AFE7BA686D
:104FC0009042F4DA7A6912780BF1010B002ABFD013
:104FD000EDE700BF8C3D04008C3D0400ABAAAAAAFB
:104FE00031F603002EF6030035F603006AF60300DF
:104FF00054F603002DE9F04387B0D0F81090044632
:105000000E4690461DF0D8F928B16FF015042046E1
:1050100007B0BDE8F083102301270A25ADF8103052
:105020000322CDE900750DF10F0304A920468DF888
:1050300012201DF04AF90028E7D14FF4EA63ADF8D9
:105040001030CDE900750DF10F03042204A92046AC
:105050008DF812508DF813801DF037F90028D4D147
:10506000022E89F8668044D1324B0493CDE9007555
:105070000DF10F03042204A920461DF026F9002893
:10508000C3D12D4B0493CDE900750DF10F0304221C
:1050900004A920461DF019F90028B6D1274B049326
:1050A000CDE900750DF10F03042204A920461DF07F
:1050B0000CF90028A9D140F25273ADF810304FF42A
:1050C000FA72012389F8656089F866808DF81230DC
:1050D000CDE9003220460DF10F03032204A91DF093
:1050E000F4F80446002890D1D9F8400119F086FC64
:1050F0008DE7042E89D10F4B0493CDE900750DF196
:105100000F03324604A920461DF0DFF800287FF483
:105110007CAF0B4B0493CDE900750DF10F033246C4
:1051200004A920461DF0D1F800287FF46EAF054B8E
:10513000B5E700BF50070B015007120150070C01E3
:105140005007120050070C00F0B50446056987B0FF
:10515000162A58D8DFE802F04957574D4657575797
:1051600057575157575757575757402E280C6600D7
:105170004FF4EA62ADF8102006221B688DF8122069
:105180008DF814301A120A260123CDE900368DF865
:1051900013200DF10F03052204A920461DF095F8F8
:1051A00018B36FF0150421E04FF4EA62ADF8102057
:1051B0000722E2E74FF4EA62ADF8102008221B68EC
:1051C0008DF813300A250123CDE900358DF8122022
:1051D0000DF10F030422DFE74FF4EA62ADF810206F
:1051E0000922ECE71B68A5F86C300024204607B0C4
:1051F000F0BD1B68A5F86E30F7E713290ED014290F
:1052000004D0122906D06FF08504EFE71B6885F8FB
:105210007030EAE71B6885F87130E6E71B6885F8AF
:105220007230E2E71A68092AEDD801A151F822F09C
:10523000395400006F52000059520000A351000081
:1052400069520000A3510000F55200007B5300009A
:10525000215400002D5400001A790221204607B085
:10526000BDE8F040FFF7C6BE1A790421F6E72046F4
:105270001DF0A2F8002894D1102301260A27ADF8CA
:105280001030CDE900670DF10F03032204A9204679
:105290008DF812601DF019F8002882D17A4B049322
:1052A000FA23CDE9006304220DF10F0304A920467F
:1052B0001DF00BF800287FF474AF314620461DF036
:1052C000AAFA00287FF46DAF704B04932046CDE915
:1052D00000670DF10F03042204A91CF0F6FF044639
:1052E00000287FF45EAF85F86560D5F8400119F0BD
:1052F00085FB7BE720461DF05FF800287FF451AF67
:1053000040F2E52301260A27ADF81030CDE9006709
:105310000DF10F03022204A920461CF0D6FF00283D
:105320007FF43FAF1023ADF8103002238DF8123018
:10533000CDE900670DF10F03032204A920461CF0FC
:10534000C4FF00287FF42DAF40F25273ADF8103047
:105350004FF4FA73CDE90063032220460DF10F03E9
:1053600004A98DF812201CF0B0FF044600287FF439
:1053700018AF062385F86530B7E740F25273ADF8F1
:105380001030012600230A278DF81230CDE900677E
:105390000DF10F03032204A920461CF096FF0028FC
:1053A0007FF4FFAE3A4B0493B5F86C3019225343A7
:1053B00003F5FA734FF47A72B3FBF2F38DF81430FD
:1053C000B5F86E3004A91B01CDE90067B3FBF2F319
:1053D00020468DF8153006220DF10F031CF075FFE5
:1053E00000287FF4DEAE1023ADF81030CDE9006761
:1053F0000DF10F03032204A920468DF812601CF062
:1054000064FF00287FF4CDAE204631461DF003FA3C
:10541000044600287FF4C5AE072385F86530E5E62D
:10542000204607B0BDE8F0401CF0A3BF204607B0FF
:10543000BDE8F0401CF0C0BF20461CF0BDFF0028B6
:105440007FF4AFAE20461CF094FF00287FF4A9AE95
:1054500044230493FA210123CDE90031042204A955
:105460000DF10F0320461CF030FF014600287FF4A9
:1054700098AE20461DF0CFF9044600287FF491AE87
:1054800085F86500B2E600BF440001004000121834
:10549000460400012DE9F04391B04568D0F8108032
:1054A00013234FF4EA69ADF828908DF82A3095F867
:1054B00032308DF82B3001260A27CDE900670DF137
:1054C000260304220AA904461CF0FFFE002840F02F
:1054D000E4801423ADF828908DF82A3095F8333005
:1054E0008DF82B30CDE900670DF1260304220AA9BF
:1054F00020461CF0EAFE002840F0CF801523ADF8CE
:1055000028908DF82A3095F834308DF82B30CDE97D
:1055100000670DF1260304220AA920461CF0D5FEDF
:10552000002840F0BA801623ADF828908DF82A3074
:1055300095F835308DF82B30CDE900670DF1260355
:1055400004220AA920461CF0C0FE002840F0A580D5
:105550004FF40473ADF8283095F836308DF82A30C2
:10556000CDE900670DF1260303220AA920461CF0AD
:10557000ACFE002840F091801923ADF828908DF8FA
:105580002A3095F82C308DF82B3095F82D308DF889
:105590002C3095F82E308DF82D30CDE900670DF1C7
:1055A000260306220AA920461CF08FFE002874D18B
:1055B0001723ADF828908DF82A3095F828308DF80B
:1055C0002B3095F829308DF82C30CDE900670DF19E
:1055D000260305220AA920461CF077FE00285CD18C
:1055E0001823ADF828908DF82A3095F82A308DF8D8
:1055F0002B3095F82B308DF82C30CDE900670DF16C
:10560000260305220AA920461CF05FFE002844D18B
:105610004FF48873ADF82830CDE900670DF126030B
:1056200003220AA920468DF82A601CF04EFEA0BB7A
:1056300063688DF83200ADF830909A69CDF8332068
:10564000DA69CDF837201B6ACDF83B30CDE9006729
:105650000DF127030F220CA920461CF036FEE0B9FD
:10566000AB8CA8F86C30EB8CA8F86E30B5F82F3006
:10567000A8F8703095F8313088F87230022540F281
:1056800011232669ADF83030019700950AAB2A4600
:105690000CA920461CF019FE28B16FF0150528460C
:1056A00011B0BDE8F0839DF8293086F877301323D8
:1056B00040F251798DF83230CDE900570AAB032220
:1056C0000CA92046ADF830901CF0FFFD0028E4D175
:1056D0009DF8293086F8733014238DF83230CDE9E7
:1056E00000570AAB03220CA92046ADF830901CF0FD
:1056F000ECFD0028D1D19DF8293086F874301523AF
:105700008DF83230CDE900570AAB03220CA92046B0
:10571000ADF830901CF0D9FD0028BED19DF829309D
:1057200086F875301623CDE900578DF83230032204
:105730000AAB0CA92046ADF830901CF0C6FD05461A
:105740000028AAD19DF8293086F87630012388F800
:10575000443100220023CDE906230E23CDE90203C4
:10576000CDE900400490094B4FF4805208F54861A0
:1057700008F1800018F00EFFC8F8400119F020F879
:10578000D8F84001024918F035FE88E7A926020042
:105790008BF70300014819F023BE00BFECCB0300D8
:1057A00038B5044618B90F4B0F485B6898476168D5
:1057B000B1F5683F10D0B1F5680F0DD00B4DA9427F
:1057C0000AD011F46861206807D00146084835F016
:1057D000FFFD00232360656038BD142236F00CFA0B
:1057E000F9E700BFF80200209CF703002C5F5CA9DA
:1057F0008C3F002008B520B34368B3F5683F10D153
:1058000001220368BFF35B8F53E8001F002903D117
:1058100043E800200028F7D1BFF35B8F0DD10020B3
:1058200008BD094A93420AD000684FF0FF324FF09A
:10583000FF3318F0DFFA0028F1D00448F0E70448FD
:10584000EEE76FF4E040EBE72C5F5CA9E98FFFFF28
:10585000EA8FFFFF08B5D8B14368B3F5683F10D1B0
:1058600000220368BFF35B8F53E8001F012903D1B7
:1058700043E800200028F7D1BFF35B8F0BD1002055
:1058800008BD074A934208D0006818F02BFBF6E7E2
:105890006FF4E040F4E70348F2E70348F0E700BFA5
:1058A0002C5F5CA9E98FFFFFEA8FFFFF10B504466C
:1058B00018B91D4B1D485B6898476368B3F5683F8E
:1058C0002FD0B3F5680F2CD0194A934219D1236811
:1058D00003BB18484FF0FF324FF0FF33214618F05A
:1058E0008DF908B923681BB90F4B13485B689847BB
:1058F00020681422002136F07FF94FF4686363605A
:1059000008E0B3F5683F0DD83A2B03D040F6BA62F1
:105910009342DED1206835F00CFE636843F03A0311
:10592000636010BD054AF3E7F80200209CF703000E
:105930002C5F5CA98C3F0020C2F703003A00003ABC
:1059400008B5064906484023142235F033FDBDE86A
:1059500008400449044819F0B5BD00BF8C3A002046
:105960008C3F0020F4CB030008CC030008B50348AB
:10597000034A0021121A1DF00FFA08BD000500208D
:10598000F0AA00200748084A084908B5121A1DF075
:1059900005FA0748074A0849BDE80840121A1DF0F1
:1059A000FDB900BF00000020D4040020B838040076
:1059B0000000002000000020B838040038B505467B
:1059C0000C4699B1D1E901230F4809681AF04BFE42
:1059D000D4E90423E1680D481AF045FEE1690C485A
:1059E0001AF041FEA1690B481AF03DFE012D05D1C8
:1059F000EFF30581084810391AF035FE2146284694
:105A0000BDE8384017F0B6BFEFF703001FF80300FA
:105A10004FF803005FF803008EF8030030BFFFF774
:105A2000FDBF00BF2DE9F0410B4EDFF8308006EBE3
:105A30000807CC1B054632460949204636F0B4F823
:105A4000A01942460021083C36F0D6F8C5F8B4400B
:105A500007F10800BDE8F081000000000800000028
:105A6000E4C50300054B5A699B689A421FBF044A6C
:105A7000536843F080535360704700BF94A80020E0
:105A800000ED00E02DE9F843324D8046324889466A
:105A900017461AF0E8FDAB6ADE0622D52F481AF049
:105AA000E2FD1124AB6A1D0703D52D481AF0DBFD7A
:105AB0001224284DAB6A980715D52A481AF0D3FD51
:105AC0006E6BAB6A190642D5274831461AF0CBFDFA
:105AD000B9F1000F03D0AB6A23F08003AB6213244B
