:10000000405600209D34000029B7000089340000CC
:1000100089340000893400008934000000000000A9
:100020000000000000000000000000000536000095
:100030008934000000000000A5350000893400006C
:10004000C1370000C1370000C1370000C1370000D0
:10005000C1370000C1370000C1370000C1370000C0
:10006000C1370000C1370000C1370000C1370000B0
:10007000C1370000C1370000C1370000C1370000A0
:10008000C1370000C1370000C1370000C137000090
:10009000C1370000C1370000C1370000C137000080
:1000A000C1370000C1370000C1370000C137000070
:1000B000C1370000C1370000C1370000C137000060
:1000C000C1370000C1370000C1370000C137000050
:1000D000C1370000C1370000C1370000C137000040
:1000E000C1370000C1370000C1370000C137000030
:1000F000C1370000C1370000C1370000C137000020
:1001000081F0004102E000BF83F0004330B54FEAC8
:1001100041044FEA430594EA050F08BF90EA020F35
:100120001FBF54EA000C55EA020C7FEA645C7FEAC8
:10013000655C00F0E2804FEA5454D4EB5555B8BFEB
:100140006D420CDD2C4480EA020281EA030382EA5C
:10015000000083EA010180EA020281EA0303362DEE
:1001600088BF30BD11F0004F4FEA01314FF4801CC1
:100170004CEA113102D0404261EB410113F0004FD3
:100180004FEA03334CEA133302D0524263EB43038A
:1001900094EA050F00F0A780A4F10104D5F1200E28
:1001A0000DDB02FA0EFC22FA05F2801841F1000183
:1001B00003FA0EF2801843FA05F359410EE0A5F157
:1001C00020050EF1200E012A03FA0EFC28BF4CF088
:1001D000020C43FA05F3C01851EBE37101F000453E
:1001E00007D54FF0000EDCF1000C7EEB00006EEB4B
:1001F0000101B1F5801F1BD3B1F5001F0CD34908D5
:100200005FEA30004FEA3C0C04F101044FEA44522B
:1002100012F5800F80F09A80BCF1004F08BF5FEAB2
:10022000500C50F1000041EB045141EA050130BD92
:100230005FEA4C0C404141EB0101013C28BFB1F5A4
:10024000801FE9D291F0000F04BF01460020B1FAEF
:1002500081F308BF2033A3F10B03B3F120020CDAC2
:100260000C3208DD02F1140CC2F10C0201FA0CF0A0
:1002700021FA02F10CE002F11402D8BFC2F1200C05
:1002800001FA02F120FA0CFCDCBF41EA0C019040BB
:10029000E41AA2BF01EB0451294330BD6FEA040404
:1002A0001F3C1CDA0C340EDC04F11404C4F12002EF
:1002B00020FA04F001FA02F340EA030021FA04F301
:1002C00045EA030130BDC4F10C04C4F1200220FA58
:1002D00002F001FA04F340EA0300294630BD21FA96
:1002E00004F0294630BD94F0000F83F4801306BF5C
:1002F00081F480110134013D4EE77FEA645C18BF50
:100300007FEA655C29D094EA050F08BF90EA020FE6
:1003100005D054EA000C04BF1946104630BD91EADE
:10032000030F1EBF0021002030BD5FEA545C05D1E1
:100330004000494128BF41F0004130BD14F5800420
:100340003CBF01F5801130BD01F0004545F0FE4194
:1003500041F470014FF0000030BD7FEA645C1ABFC9
:10036000194610467FEA655C1CBF0B46024650EA00
:10037000013406BF52EA033591EA030F41F400212C
:1003800030BD00BF90F0000F04BF0021704730B5B2
:100390004FF4806404F132044FF000054FF0000187
:1003A00050E700BF90F0000F04BF0021704730B548
:1003B0004FF4806404F1320410F0004548BF40421D
:1003C0004FF000013EE700BF42004FEAE2014FEA72
:1003D00031014FEA02701FBF12F07F4393F07F4F4D
:1003E00081F06051704732F07F4208BF704793F050
:1003F0007F4F04BF41F40021704730B54FF4607463
:1004000001F0004521F000411CE700BF50EA010265
:1004100008BF704730B54FF000050AE050EA01020E
:1004200008BF704730B511F0004502D5404261EB7E
:1004300041014FF4806404F132045FEA915C3FF4BF
:10044000D8AE4FF003025FEADC0C18BF03325FEA5C
:10045000DC0C18BF033202EBDC02C2F1200300FA0D
:1004600003FC20FA02F001FA03FE40EA0E0021FA32
:1004700002F11444BDE600BF70B54FF0FF0C4CF420
:10048000E06C1CEA11541DBF1CEA135594EA0C0FD2
:1004900095EA0C0F00F0DEF82C4481EA030621EA0D
:1004A0004C5123EA4C5350EA013518BF52EA033548
:1004B00041F4801143F4801338D0A0FB02CE4FF0FA
:1004C0000005E1FB02E506F00042E0FB03E54FF02A
:1004D0000006E1FB03569CF0000F18BF4EF0010E22
:1004E000A4F1FF04B6F5007F64F5407404D25FEA1E
:1004F0004E0E6D4146EB060642EAC62141EA5551D1
:100500004FEAC52040EA5E504FEACE2EB4F1FD0C12
:1005100088BFBCF5E06F1ED8BEF1004F08BF5FEA90
:10052000500E50F1000041EB045170BD06F0004642
:1005300046EA010140EA020081EA0301B4EB5C04EF
:10054000C2BFD4EB0C0541EA045170BD41F48011E7
:100550004FF0000E013C00F3AB8014F1360FDEBF0C
:10056000002001F0004170BDC4F10004203C35DAE8
:100570000C341BDC04F11404C4F1200500FA05F36B
:1005800020FA04F001FA05F240EA020001F000420C
:1005900021F0004110EBD37021FA04F642EB060182
:1005A0005EEA430E08BF20EAD37070BDC4F10C04AC
:1005B000C4F1200500FA04F320FA05F001FA04F270
:1005C00040EA020001F0004110EBD37041F100015C
:1005D0005EEA430E08BF20EAD37070BDC4F1200567
:1005E00000FA05F24EEA020E20FA04F301FA05F2CF
:1005F00043EA020321FA04F001F0004121FA04F277
:1006000020EA020000EBD3705EEA430E08BF20EA46
:10061000D37070BD94F0000F0FD101F00046400080
:1006200041EB010111F4801F08BF013CF7D041EA02
:10063000060195F0000F18BF704703F00046520006
:1006400043EB030313F4801F08BF013DF7D043EAD7
:100650000603704794EA0C0F0CEA135518BF95EA8D
:100660000C0F0CD050EA410618BF52EA4306D1D114
:1006700081EA030101F000414FF0000070BD50EA33
:10068000410606BF1046194652EA430619D094EABD
:100690000C0F02D150EA013613D195EA0C0F05D1A7
:1006A00052EA03361CBF104619460AD181EA0301FB
:1006B00001F0004141F0FE4141F470014FF00000B3
:1006C00070BD41F0FE4141F4780170BD70B54FF04E
:1006D000FF0C4CF4E06C1CEA11541DBF1CEA1355CE
:1006E00094EA0C0F95EA0C0F00F0A7F8A4EB0504B0
:1006F00081EA030E52EA03354FEA013100F08880A7
:100700004FEA03334FF0805545EA131343EA12636F
:100710004FEA022245EA111545EA10654FEA002624
:100720000EF000419D4208BF964244F1FD0404F5DD
:10073000407402D25B084FEA3202B61A65EB030539
:100740005B084FEA32024FF480104FF4002CB6EBF6
:10075000020E75EB030E22BFB61A754640EA0C0076
:100760005B084FEA3202B6EB020E75EB030E22BFB6
:10077000B61A754640EA5C005B084FEA3202B6EBF7
:10078000020E75EB030E22BFB61A754640EA9C00B6
:100790005B084FEA3202B6EB020E75EB030E22BF86
:1007A000B61A754640EADC0055EA060E18D04FEA44
:1007B000051545EA16754FEA06164FEAC30343EAE4
:1007C00052734FEAC2025FEA1C1CC0D111F4801FB1
:1007D0000BD141EA00014FF000004FF0004CB6E7AA
:1007E00011F4801F04BF01430020B4F1FD0C88BF49
:1007F000BCF5E06F3FF6AFAEB5EB030C04BFB6EB54
:10080000020C5FEA500C50F1000041EB045170BD46
:100810000EF0004E4EEA113114EB5C04C2BFD4EB73
:100820000C0541EA045170BD41F480114FF0000EF7
:10083000013C90E645EA060E8DE60CEA135594EA73
:100840000C0F08BF95EA0C0F3FF43BAF94EA0C0F76
:100850000AD150EA01347FF434AF95EA0C0F7FF4EB
:1008600025AF104619462CE795EA0C0F06D152EA3F
:1008700003353FF4FDAE1046194622E750EA410623
:1008800018BF52EA43067FF4C5AE50EA41047FF434
:100890000DAF52EA43057FF4EBAE12E74FF0FF3C99
:1008A00006E000BF4FF0010C02E000BF4FF0010C6A
:1008B0004DF804CD4FEA410C7FEA6C5C4FEA430CE3
:1008C00018BF7FEA6C5C1BD001B050EA410C0CBF32
:1008D00052EA430C91EA030F02BF90EA020F002094
:1008E000704710F1000F91EA030F58BF994208BFFB
:1008F00090422CBFD8176FEAE37040F001007047B8
:100900004FEA410C7FEA6C5C02D150EA013C07D10E
:100910004FEA430C7FEA6C5CD6D152EA033CD3D059
:100920005DF8040B704700BF8446104662468C4653
:100930001946634600E000BF01B5FFF7B7FF002886
:1009400048BF10F1000F01BD4DF808EDFFF7F4FFAF
:100950000CBF012000205DF808FB00BF4DF808ED3A
:10096000FFF7EAFF34BF012000205DF808FB00BF5D
:100970004DF808EDFFF7E0FF94BF012000205DF87F
:1009800008FB00BF4DF808EDFFF7CEFF94BF012034
:1009900000205DF808FB00BF4DF808EDFFF7C4FF2D
:1009A00034BF012000205DF808FB00BF4FEA410280
:1009B00012F5001215D211D56FF47873B3EB6252B1
:1009C00012D94FEAC12343F0004343EA505311F0D8
:1009D000004F23FA02F018BF404270474FF000006A
:1009E000704750EA013005D111F0004008BF6FF0A8
:1009F000004070474FF00000704700BF4A0011D21E
:100A000012F5001211D20DD56FF47873B3EB625268
:100A10000ED44FEAC12343F0004343EA505323FA74
:100A200002F070474FF00000704750EA013002D1E9
:100A30004FF0FF3070474FF0000070474FEA41021F
:100A4000B2F1E04324BFB3F5001CDCF1FE5C0DD92C
:100A500001F0004C4FEAC0024CEA5070B2F1004F76
:100A600040EB830008BF20F00100704711F0804F79
:100A700021D113F13872BCBF01F00040704741F43E
:100A800080114FEA5252C2F11802C2F1200C10FA42
:100A90000CF320FA02F018BF40F001004FEAC12326
:100AA0004FEAD32303FA0CFC40EA0C0023FA02F3CA
:100AB0004FEA4303CCE77FEA625307D150EA0133A0
:100AC0001EBF4FF0FE4040F44000704701F0004070
:100AD00040F0FE4040F40000704700BF80F000404E
:100AE00002E000BF81F0004142001FBF5FEA410306
:100AF00092EA030F7FEA226C7FEA236C6AD04FEA06
:100B00001262D2EB1363C1BFD2184140484041404A
:100B1000B8BF5B42192B88BF704710F0004F40F4FC
:100B2000000020F07F4018BF404211F0004F41F418
:100B3000000121F07F4118BF494292EA030F3FD0E4
:100B4000A2F1010241FA03FC10EB0C00C3F12003F7
:100B500001FA03F100F0004302D5494260EB400086
:100B6000B0F5000F13D3B0F1807F06D340084FEAF1
:100B7000310102F10102FE2A51D2B1F1004F40EBE6
:100B8000C25008BF20F0010040EA0300704749004E
:100B900040EB0000013A28BFB0F5000FEDD2B0FAEB
:100BA00080FCACF1080CB2EB0C0200FA0CF0AABF0E
:100BB00000EBC25052421843BCBFD04018437047AC
:100BC00092F0000F81F4000106BF80F400000132B2
:100BD000013BB5E74FEA41037FEA226C18BF7FEA89
:100BE000236C21D092EA030F04D092F0000F08BFCB
:100BF0000846704790EA010F1CBF0020704712F0B2
:100C00007F4F04D1400028BF40F00040704712F1F0
:100C100000723CBF00F50000704700F0004343F055
:100C2000FE4040F4000070477FEA226216BF08468B
:100C30007FEA23630146420206BF5FEA412390EA4E
:100C4000010F40F4800070474FF0000304E000BF44
:100C500010F0004348BF40425FEA000C08BF7047F5
:100C600043F0964301464FF000001CE050EA0102B9
:100C700008BF70474FF000030AE000BF50EA0102CE
:100C800008BF704711F0004302D5404261EB4101BB
:100C90005FEA010C02BF84460146002043F0B643E0
:100CA00008BFA3F18053A3F50003BCFA8CF2083A05
:100CB000A3EBC25310DB01FA02FC634400FA02FC0E
:100CC000C2F12002BCF1004F20FA02F243EB020015
:100CD00008BF20F00100704702F1200201FA02FC77
:100CE000C2F1200250EA4C0021FA02F243EB02006A
:100CF00008BF20EADC7070474FF0FF0C1CEAD052AE
:100D00001EBF1CEAD15392EA0C0F93EA0C0F6FD06E
:100D10001A4480EA010C400218BF5FEA41211ED04C
:100D20004FF0006343EA501043EA5111A0FB013138
:100D30000CF00040B1F5000F3EBF490041EAD3710D
:100D40005B0040EA010062F17F02FD2A1DD8B3F189
:100D5000004F40EBC25008BF20F00100704790F0F8
:100D6000000F0CF0004C08BF49024CEA502040EA4A
:100D700051207F3AC2BFD2F1FF0340EAC250704710
:100D800040F400004FF00003013A5DDC12F1190F4E
:100D9000DCBF00F000407047C2F10002410021FAC0
:100DA00002F1C2F1200200FA02FC5FEA310040F1D8
:100DB000000053EA4C0308BF20EADC70704792F051
:100DC000000F00F0004C02BF400010F4000F013A89
:100DD000F9D040EA0C0093F0000F01F0004C02BF84
:100DE000490011F4000F013BF9D041EA0C018FE7F3
:100DF0000CEAD15392EA0C0F18BF93EA0C0F0AD0F9
:100E000030F0004C18BF31F0004CD8D180EA01001E
:100E100000F00040704790F0000F17BF90F0004FB7
:100E2000084691F0000F91F0004F14D092EA0C0F99
:100E300001D142020FD193EA0C0F03D14B0218BF2C
:100E4000084608D180EA010000F0004040F0FE4072
:100E500040F40000704740F0FE4040F4400070470E
:100E60004FF0FF0C1CEAD0521EBF1CEAD15392EA8D
:100E70000C0F93EA0C0F69D0A2EB030280EA010C7D
:100E800049024FEA402037D04FF0805343EA111116
:100E900043EA10130CF000408B4238BF5B0042F174
:100EA0007D024FF4000C8B4224BF5B1A40EA0C0019
:100EB000B3EB510F24BFA3EB510340EA5C00B3EB4B
:100EC000910F24BFA3EB910340EA9C00B3EBD10F39
:100ED00024BFA3EBD10340EADC001B0118BF5FEA8B
:100EE0001C1CE0D1FD2A3FF650AF8B4240EBC250B4
:100EF00008BF20F0010070470CF0004C4CEA502075
:100F00007F32C2BFD2F1FF0340EAC250704740F4C3
:100F100000004FF00003013A37E792F0000F00F0B5
:100F2000004C02BF400010F4000F013AF9D040EA33
:100F30000C0093F0000F01F0004C02BF490011F4C7
:100F4000000F013BF9D041EA0C0195E70CEAD153BF
:100F500092EA0C0F08D142027FF47DAF93EA0C0FA6
:100F60007FF470AF084676E793EA0C0F04D14B028A
:100F70003FF44CAF08466EE730F0004C18BF31F03C
:100F8000004CCAD130F000427FF45CAF31F0004336
:100F90007FF43CAF5FE700BF4FF0FF3C06E000BFCF
:100FA0004FF0010C02E000BF4FF0010C4DF804CDF2
:100FB0004FEA40024FEA41037FEA226C18BF7FEA02
:100FC000236C11D001B052EA530C18BF90EA010F04
:100FD00058BFB2EB030088BFC81738BF6FEAE17093
:100FE00018BF40F0010070477FEA226C02D15FEA2F
:100FF000402C05D17FEA236CE4D15FEA412CE1D09B
:101000005DF8040B704700BF844608466146FFE761
:101010000FB5FFF7C9FF002848BF10F1000F0FBD43
:101020004DF808EDFFF7F4FF0CBF012000205DF83C
:1010300008FB00BF4DF808EDFFF7EAFF34BF0120C1
:1010400000205DF808FB00BF4DF808EDFFF7E0FF5A
:1010500094BF012000205DF808FB00BF4DF808EDAB
:10106000FFF7D2FF94BF012000205DF808FB00BF0E
:101070004DF808EDFFF7C8FF34BF012000205DF8F0
:1010800008FB00BF4FEA4002B2F1FE4F0FD34FF012
:101090009E03B3EB12620DD94FEA002343F00043E5
:1010A00010F0004F23FA02F018BF404270474FF093
:1010B0000000704712F1610F01D1420205D110F01A
:1010C000004008BF6FF0004070474FF000007047CD
:1010D0007BB972B90029BEBF00204FF0004106E085
:1010E00008BF00281CBF6FF000414FF0FF3000F038
:1010F00057B8ADF1080C6DE904CE002909DB002BCF
:101100001ADB00F04FF8DDF804E0DDE9022304B05B
:101110007047404261EB4101002B1BDB00F042F8BD
:10112000DDF804E0DDE9022304B0404261EB410157
:10113000524263EB43037047524263EB430300F0B8
:1011400031F8DDF804E0DDE9022304B0404261EB50
:1011500041017047524263EB430300F023F8DDF88E
:1011600004E0DDE9022304B0524263EB430370471D
:1011700053B94AB9002908BF00281CBF4FF0FF31FE
:101180004FF0FF3000F00CB8ADF1080C6DE904CE63
:1011900000F008F8DDF804E0DDE9022304B0704750
:1011A000704700BF2DE9F04786468C460846089EEA
:1011B000154674461946002B40F0C2808542B2FAAB
:1011C00082F245D94AB1C2F1200300FA02FC2EFA9C
:1011D00003F3954043EA0C0C94404FEA154EA8B235
:1011E000BCFBFEF8230C0EFB18CC08FB00F943EA0D
:1011F0000C43994528D9EB1808F1FF3704D29945DB
:1012000002D9A8F102072B44A3EB0903A4B2B3FB54
:10121000FEFC0EFB1C330CFB00F044EA0344A0422E
:1012200014D92C190CF1FF3304D2A04202D9ACF12D
:1012300002032C44241A43EA07401EB1D440002381
:1012400034607360BDE8F0874746DDE76346F1E749
:1012500092BB431B01214FEA154EAFB2B3FBFEFC1C
:10126000200C0EFB1C330CFB07F840EA03439845A7
:1012700062D9EB180CF1FF3004D2984502D9ACF1D9
:1012800002002B44A3EB0803A4B2B3FBFEFC0EFB4D
:101290001C330CFB07F744EA0344A7424ED92C1930
:1012A0000CF1FF3304D2A74202D9ACF102032C4463
:1012B000E41B43EA0040C0E7C2F1200320FA03F137
:1012C000954090402EFA03F303434FEA154EAFB218
:1012D000B1FBFEFC0EFB1C10190C0CFB07F841EADD
:1012E0000041884504FA02F422D969180CF1FF3054
:1012F00004D2884502D9ACF102002944A1EB0801CF
:101300009BB2B1FBFEFC0EFB1C110CFB07F743EA82
:1013100001439F420ED9EB180CF1FF3104D29F42DA
:1013200002D9ACF102012B44DB1B41EA004192E7F8
:101330006046E3E76146F7E76046A3E76346B7E741
:10134000834206D916B9002108467BE7C6E900E0CA
:10135000F9E7B3FA83F78FB9834201D3724508D80E
:10136000BEEB020460EB030301209C461EB9002182
:1013700068E73846FAE7C6E9004CF8E7C7F1200C01
:10138000BB4022FA0CF41C432EFA0CF120FA0CF3A9
:10139000B84001434FEA14490EFA07F5B3FBF9F8D8
:1013A0001FFA84FE09FB18300B0C08FB0EFA43EA07
:1013B00000439A4502FA07F240D9E31808F1FF30DA
:1013C00004D29A4502D9A8F102002344A3EB0A03F0
:1013D00089B2B3FBF9F809FB183308FB0EFE41EAAA
:1013E00003418E452CD9611808F1FF3304D28E4594
:1013F00002D9A8F10203214443EA0040A0FB02986D
:10140000A1EB0E014145CE46434602D306D14D45E0
:1014100004D2B9EB020E68EB04030138002EA6D00B
:10142000B5EB0E0261EB030101FA0CFC22FA07F3A3
:101430004CEA0303F940C6E9003198E74046C5E7A6
:101440004346D9E70000000070B506461446CD17A4
:10145000A1FB020104FB05110A220023FFF738FE5D
:101460000F4D80FB05450AA3D3E9002320462946FA
:10147000FFF72EFE08A3D3E900233060294620465B
:10148000FFF726FE074A0023FFF722FE726070BDB9
:1014900000209BF35E10000080A8120100000000F5
:1014A000D8EF2F0040420F0003292DE9F0410546F7
:1014B0000C4604D0072973D06FF085004CE0002A59
:1014C00052D0072AF8D158681A68614BC117C2FB7D
:1014D0000301012871F100035BDBD5F804805D4B4B
:1014E00098F81A6098F91A70C01841F1000154A3D5
:1014F000D3E90023F609FFF7EBFD76B2002E14BF07
:1015000004230223984229D0002E14BF2023102345
:10151000984225D0002E14BF08230423984221D0DE
:10152000002E14BF10230823984232D1E6B2314670
:1015300040462D6909F05FFE002824DB464BAE775C
:1015400033F81430002F4FF03D02AABFA3FB023244
:1015500053435B08EB600020BDE8F0810024E5E721
:101560000124E3E70224E1E719883C4B14461F46B7
:1015700033F8022B914209D868682E69E1B209F06C
:10158000AEFF002808DA6FF00400E5E701340B2C09
:10159000EED16FF01500DFE737F81430B383DAE7E8
:1015A000002A3AD0072A87D15A681968284BD017E1
:1015B000C1FB0320B424A2FB0431012A04FB001167
:1015C00070F100001DDB264818181FA3D3E9002383
:1015D00041F10001FFF77CFD224B002433F8022B80
:1015E000904216D168682E69E1B209F01BFE00280E
:1015F000C9DB1D4B33F8143041F217125343B3616A
:10160000A9E71A48181861F100010FA3D3E90023D4
:10161000E0E70134072CE1D1BBE719880F4B33F821
:10162000020B814206D86868D1B209F0C6FF0028D3
:1016300091DAA8E701320B2AF1D1AAE7AFF30080D3
:101640003AA3950000000000D8EF2F000000000032
:1016500040420F009DD14A00A4EC0000ACEC000019
:10166000ECF7170096EC000088EC00001408E8FF87
:101670002DE9F74F03290669144605D90B1F032BE3
:1016800053D96FF0850023E00229F7683A4D22D044
:10169000032923D0012914BFB6F90460B6F9066006
:1016A000A6FB076786FB056531A3D3E90023304617
:1016B0002946FFF70DFD314A2060002330462946B8
:1016C000FFF706FD2D4A0023FFF702FD62600020B0
:1016D00003B0BDE8F08FB6F90860E1E702F1180346
:1016E000DFF898A0019302364FF0000B36F9028F15
:1016F000A8FB078388FB05981DA3D3E90023484670
:101700004146FFF7E5FC524644F8080B5B46484665
:101710004146FFF7DDFC52465B46FFF7D9FC019BD3
:1017200044F8042C9C42E1D1D1E70629B5690CD0DC
:1017300007290ED0052914BFB6F91010B6F91210FA
:101740002A462046FFF780FEC1E7B6F914102A4664
:10175000F7E70E3602F11807204636F9021F083463
:101760002A46FFF771FEA742F6D1B0E7AFF300803B
:101770000010A5D4E80000003AA3950040420F00F5
:101780002DE9FF47B04F21F00042BA4204460D4612
:101790004FEAD17632D9AD4FBA4216D894A3D3E9E5
:1017A0000023FFF7F9F8074610BB93A3D3E9002302
:1017B00020462946FFF7D2F8002800F09E803846E0
:1017C00004B0BDE8F0470CF0C1BCC1F31303034300
:1017D000024605D00B46FEF799FC04460D4602E092
:1017E000002E40F0FF802046294604B0BDE8F08777
:1017F000002004B0BDE8F04708F00CBB944B9A42BF
:1018000040F2A780934B9A4277D8934B03EBC603E1
:10181000D3E90023FEF778FC904BF4002344D3E98E
:101820000034CDE90034C6F1010A80468946AAEBAE
:10183000060ADDE9002340464946FEF765FC0446FA
:101840000D4622462B4620462946FEF715FE6CA380
:10185000D3E9002306460F46FEF70EFE6AA3D3E93E
:101860000023FEF751FC32463B46FEF705FE68A317
:10187000D3E90023FEF74AFC32463B46FEF7FCFD67
:1018800065A3D3E90023FEF73FFC32463B46FEF753
:10189000F3FD63A3D3E90023FEF738FC32463B4651
:1018A000FEF7EAFD02460B4620462946FEF72CFCD1
:1018B00002460B4606460F4620462946FEF7DCFD4B
:1018C000CDE90201BAF1000F5AD100224FF0804356
:1018D00030463946FEF718FC02460B46DDE90201A8
:1018E000FEF7F4FE22462B46FEF70EFC02460B46A0
:1018F00000205B49FEF708FC6FE75A4B204603EBDC
:10190000C606294648A3D3E90023FEF7B5FDD6E96C
:101910000023FEF7FBFBFFF749F88246FEF742FD86
:1019200043A3D3E9002306460F46FEF7A5FD024672
:101930000B4620462946FEF7E7FB3FA3D3E90023E9
:101940008046894630463946FEF796FDCDE90001CE
:101950006FE7454B9A420ED839A3D3E90023FEF72F
:10196000D5FB3F4B0022FFF717F838B13C4B002264
:10197000204629462FE74FF0000A62E7824660E7DB
:1019800032463B4600204FF08041FEF7BDFB024649
:101990000B46DDE90201FEF799FE02460B46DDE942
:1019A0000001FEF7B1FB42464B46FEF7ADFB0B468E
:1019B00002462B490020FEF7A7FB0B466FF47F7110
:1019C0008A45064603DB344603EB0A550BE70AF566
:1019D0007A7A03EB0A51304600224FF0B873FEF7D3
:1019E0004BFDFAE600240025FDE600BFAFF30080C2
:1019F000EF39FAFE422E864051302DD5104987C06E
:101A0000D0A4BE726937663EF16BD2C541BDBB3E04
:101A10002CDE25AF6A56113F93BDBE166CC1663FE2
:101A20003E5555555555C53FFE822B654715F73F29
:101A30000000E0FE422EE63F763C7935EF39EA3D84
:101A40009C7500883CE4377E412E8640FFFFEF7F87
:101A5000422ED63FB1A2F03F18E8000008E800008F
:101A60000000F03F28E80000FFFFEF3D000000000D
:101A700030F000422DE9F84F0146034604D1BDE89D
:101A8000F84F012008F0D2B9002803DABDE8F84F7A
:101A900008F0D4B9B0F1FF4F03DBFFF725F8BDE83C
:101AA000F88FB0F5000F35DA4FF09841FFF724F9C1
:101AB0006FF018020346C3F31604DE15764B234479
:101AC00003F400007F3E80F07E5016444FF07E51BC
:101AD000204306EBD356FFF705F8704B04F10F02D5
:101AE00013400546002B3ED10021FFF799FA98B12B
:101AF000002E00F0C8803046FFF7AAF86849054676
:101B0000FFF7FAF8674904462846FFF7F5F801465B
:101B10002046C2E70022CEE75DA1D1E90001FEF731
:101B20008DFF2946FFF7E8F801464FF07C50FEF79D
:101B3000D9FF294604462846FFF7DEF8014620462D
:101B4000FFF7DAF804460EB921466FE03046FFF79A
:101B50007FF853490746FFF7CFF852490646384603
:101B6000FFF7CAF872E04FF08041FEF7BDFF014673
:101B70002846FFF775F981463046FFF769F8494670
:101B800080464846FFF7B8F801468246FFF7B4F8AA
:101B90004549DFF818B10746FFF7AEF84449FEF7AC
:101BA000A3FF3946FFF7A8F84249FEF79DFF3946E3
:101BB000FFF7A2F84049FEF797FF5146FFF79CF860
:101BC0003E4982463846FFF797F83D49FEF78CFFBD
:101BD0003946FFF791F83B49FEF786FF3946FFF794
:101BE0008BF801465046FEF77FFFC4F55713A34418
:101BF00003F5227343EA0B03002B074630DD4FF059
:101C00007C512846FFF778F82946FFF775F801461A
:101C100004463846FEF768FF4946FFF76DF8074669
:101C200046B901462046FEF75DFF01462846FEF70D
:101C300059FF34E71A494046FFF75EF8194906464E
:101C40004046FFF759F83946FEF74EFF0146204659
:101C5000FEF748FF2946FEF745FF01463046E6E716
:101C600001462846FEF73EFF4946FFF745F8044681
:101C7000002E3FF469AF0A494046FFF73DF8094995
:101C8000064640466CE7002009E700BFAFF300803E
:101C9000555555555555D53F20FB4A00F0FF7F005F
:101CA0008071313FD1F717379788173E305CCFFFEF
:101CB00025333A3E2549923EABAA2A3F4FD01C3EDF
:101CC000298E633ECDCCCC3E08B50349034807F0CE
:101CD00033FE002008BD00BFC2EC0000D4EC0000C1
:101CE000014B1B68184700BFB0000020014B186073
:101CF000704700BFB000002030B585B004460D46E7
:101D00001022002168460CF0B6F902238DF802304B
:101D10002A46044B01932146684607F01FFE05B092
:101D200030BD00BFE11C000080B505460E461746D9
:101D3000984607F047F903460CF010FADFF81890C0
:101D4000044649F80030424630463946A84754F820
:101D5000090001F011FC00BF080000002DE9F04768
:101D6000058B04462807904611D4022905F0070583
:101D700040F0CC80204608F0EEFA78B10138218B93
:101D8000042811D8DFE800F0C2106D859500012904
:101D90000CBF45F0100545F02005258388F3118818
:101DA000BFF36F8FBDE8F08701F0070AAA4500F086
:101DB000A5800027B9463E46A368002B00F0BC80F2
:101DC00041F00801218388F31188BFF36F8FA16868
:101DD000002900F0BA800D68002900F0B680D1F823
:101DE0000480334652462046C047002D76D02B68EB
:101DF00029461D46F0E701F007035A1F012A1BD8A8
:101E0000002221F00701062B276889B2C4E90022CD
:101E100009D13B4603E0628B013262831B68002BD1
:101E2000F9D141F002012183204608F094FA0028FC
:101E30007AD041F0200176E0042B0AD121F007018D
:101E400089B22183204608F086FA10B141F02001C2
:101E50002183218B01F0070AAA454FD00027B946FC
:101E6000AAE7236921F0070141F00601062DD3F806
:101E7000009021832DD1B9F1000F3FD041F008012E
:101E8000218388F31188BFF36F8F3A492046C847F2
:101E900029E021F00701236941F0040189B2042DF2
:101EA000D3F804902183E6D000273E464FF0040A81
:101EB00082E721F00701236941F0050189B2052D70
:101EC000D3F808902183D6D000273E464FF0050A6C
:101ED00072E700273E464FF0060A6DE72B4687E77C
:101EE000B9F1000FD1D1EFF31188202383F31288C9
:101EF000BFF36F8F238B23F008032383258BEA0620
:101F00002ED525F01003238305F007056669218B84
:101F1000002EBFF670AF00232768C4E9003321F01C
:101F2000070141F001012183218B01F0070AAA4535
:101F30004FF000097FF440AF002F9CD041F0080122
:101F4000218388F31188BFF36F8F002FC8D03D68BD
:101F5000394633465246204608F029FA2F46F4E720
:101F6000AB067FF51BAF25F02003238305F00705A3
:101F700000E700BFDBA30000014B036000207047B7
:101F800038E8000010B5094B00211A461C7884423D
:101F900004D15C6814B102EB811010BD0131042939
:101FA00003F14003F2D10020F7E700BFA02A002090
:101FB0002DE9F34150F8283C10F82C6C10330446FE
:101FC0000AD1036950F8202C980736D5D2B95907A1
:101FD00015D5002344F8283C54F8283C10330BD086
:101FE00054E9077554F8148C0BF0E0FE00284FD02C
:101FF0002E4821460BF0BEFE02B0BDE8F08143F052
:102000000403236154F8241C01AB304608F04BFB59
:1020100010B16FF01503DDE7019A54F8243C134426
:1020200044F8243C54F8203C9B1A44F8203C54F8D3
:102030001C3C134444F81C3CCEE754F8241C01AB70
:10204000304602F04FF90028E3D1019D54F8243CBA
:102050002B4444F8243C54F8203C5B1B44F8203CBF
:1020600054F81C3C2B4444F81C3C002DB1D03046A5
:1020700002F0C2F9B5FBF0F303FB1055002DA8D117
:1020800054F8203C002BA4D0304602F073F9A3E7AB
:1020900044F8180CA4F1100006F0CEF9002DABD0D6
:1020A000424639463046A847A6E700BF0027002031
:1020B0004B1E012B73B506460D460FD8FFF762FF86
:1020C000044668B9012D09D101AB01220DF10301CC
:1020D000304602F007F9019B002BF5D102B070BD2C
:1020E0000BF064FE04F12C0108B1012D05D1084666
:1020F00002B0BDE87040FFF75BBF034802B0BDE827
:1021000070400BF037BE00BF002700202DE9F74FCD
:10211000064601911546984608F00DFB0446002836
:102120005BD1EFF3118A202383F31288BFF36F8F03
:10213000DFF8ACB000220023584606F0B1F970B9C0
:10214000DFF8A090A70109EB8414636813F1100F66
:1021500014D10193584606F06FF9019B06E0013453
:10216000042C0BF1400BE5D16FF00B038AF31188BF
:10217000BFF36F8F184603B0BDE8F08F019B20615D
:10218000C4E902350C9B63610D9BA36130466FF07F
:102190000F0309F80760C4F83C80636002F02CF973
:1021A00058B1304602F028F9B5FBF0F303FB1055A7
:1021B0001DB1E36B43F00403E36318F0020F07D093
:1021C00007F12C01084849440BF0D4FD0023CDE76A
:1021D000304602F0CFF80346C8E76FF00F03C9E7B7
:1021E000BC2A0020A02A002000270020016901232A
:1021F00081F84B300B6833B191F849301BB102487C
:1022000008310BF0B7BD704700270020016901239A
:1022100081F84A300B6833B191F848301BB102485D
:1022200008310BF0A7BD70470027002070B5056985
:10223000EFF31186202383F31288BFF36F8FD5F855
:10224000900008F0EDF9044686F31188BFF36F8F14
:1022500030B104480022002305F1180106F0C8FA45
:10226000204670BD0027002070B5012382F8483059
:1022700013680D4614463BB192F84A3023B10E481C
:1022800002F108010BF076FDD4F890305A89DB8812
:102290009A4205D17DB904F1180140F6CD4204E01F
:1022A00004F11801002DF8D00022BDE8704002486A
:1022B000002306F09DBA70BD0027002070B50E46C1
:1022C00081880446C9B21548154608F010FA10B3C3
:1022D00094F900206378002A16DB202B04D0222BEF
:1022E0000ED06FF085000AE02B681A6840F8102CB9
:1022F0009A8820F80C2C9B7900F80A3C002070BDCD
:10230000638800F8093CF9E7212BEAD1103807234C
:1023100028603360F2E76FF01200F0E7A42B002092
:1023200008B50146034808F0F0F910B1012300F8A0
:10233000073C08BDA42B00200D4A03460021A0F84D
:1023400048101068C3F8940090889279A3F8980018
:1023500083F89A2083F89C1083F89B10A3F89E10B2
:1023600083F8A010402203F14C000BF084BE00BFA4
:10237000F0E7000010B504690023C4F8A8300C4B46
:10238000C4F8A400596804F1A80269B9C3E900229D
:1023900004F1080007490BF0D1FC04F118000649CC
:1023A0000BF0F8FC002010BD0A605A60F0E700BF97
:1023B000A42B002061A700004124000073B504692C
:1023C0008DF80710002384F848302025EFF311869C
:1023D00085F31288BFF36F8F0122D4F890000DF1BE
:1023E000070108F01DF986F31188BFF36F8F0128EC
:1023F00013D00BF0DBFC10B994F8A130B3B90E4B3D
:10240000BFF35B8F012253E8001F002903D143E88B
:1024100000200028F7D1BFF35B8F2122002304F1B5
:102420001801064806F0E4F902B070BD0021212031
:102430000BF05CFDCAE700BFA02B002000270020A6
:10244000F0B5D0F88C305B681B6A1F7D85B00546FF
:10245000384608F070F9064650BB95F886303BB315
:10246000A86F0146C38831F80A2F9B1A9BB2B3F5B7
:10247000806F28BF4FF4806303AA08F082F80446F7
:10248000B0B18306A5F1180308BF00F1FF3485F849
:1024900030600193074B039900932246022338468C
:1024A000FFF734FEA86F224600F10A0108F09FF8FA
:1024B00005B0F0BD6922000037B514460A1E054676
:1024C00021DDD4F88C0004F14C0108F0A9F80123B7
:1024D00084F8493023683BB194F84B3023B111485C
:1024E00004F108010BF046FCD4F88C209388918904
:1024F00012695B1A9BB2D31A3F2B04D8012384F8CC
:10250000A03003B030BD94F89E30002BF9D0064BBC
:10251000009301940123402204F14C012846FFF767
:10252000F5FDEEE700270020B9240000F7B50D46C1
:1025300001461D4808F0CFF8044610B30646691E50
:1025400056F8A4395F6805291BD8DFE801F01C1A8A
:10255000031C222610F8061C99B9012300F8063C3A
:102560003B6A3246187BFFF7A7FF14F85C2C42B990
:102570003B6A187D0D4B0093019602231146FFF72D
:10258000C5FD03B0F0BD304603B0BDE8F040FFF735
:10259000D3BE012304F8053CF3E710F8053C002BFB
:1025A000EFD00023F6E700BFA42B00206922000033
:1025B00037B5094D0949002400944FF0FF334FF41B
:1025C0008062284606F0D4F8054928460BF0F4FB53
:1025D000204603B030BD00BF00270020004000208F
:1025E000F3EC000008B5044807F08DFEBDE8084094
:1025F000024807F088BE00BF05ED00003AED00007C
:102600002DE9F04387B0D0F8109004460E4690466E
:1026100008F092FB28B16FF01504204607B0BDE822
:10262000F083102301270A25ADF810300322CDE9ED
:1026300000750DF10F0304A920468DF8122008F053
:1026400004FB0028E7D14FF4EA63ADF81030CDE980
:1026500000750DF10F03042204A920468DF81250D5
:102660008DF8138008F0F1FA0028D4D1022E89F8F1
:10267000668044D1324B0493CDE900750DF10F0310
:10268000042204A9204608F0E0FA0028C3D12D4B0B
:102690000493CDE900750DF10F03042204A920462F
:1026A00008F0D3FA0028B6D1274B0493CDE9007582
:1026B0000DF10F03042204A9204608F0C6FA0028F1
:1026C000A9D140F25273ADF810304FF4FA720123E1
:1026D00089F8656089F866808DF81230CDE900329E
:1026E00020460DF10F03032204A908F0AEFA0446B8
:1026F000002890D1D9F8000106F020FB8DE7042EC8
:1027000089D10F4B0493CDE900750DF10F033246CB
:1027100004A9204608F099FA00287FF47CAF0B4BFF
:102720000493CDE900750DF10F03324604A920464C
:1027300008F08BFA00287FF46EAF054BB5E700BFB9
:1027400050070B015007120150070C0150071200EF
:1027500050070C00F0B50446056987B0162A58D812
:10276000DFE802F04957574D4657575757575157CB
:10277000575757575757402E280C66004FF4EA62B8
:10278000ADF8102006221B688DF812208DF8143049
:102790001A120A260123CDE900368DF813200DF117
:1027A0000F03052204A9204608F04FFA18B36FF072
:1027B000150421E04FF4EA62ADF810200722E2E7A9
:1027C0004FF4EA62ADF8102008221B688DF8133030
:1027D0000A250123CDE900358DF812200DF10F03F4
:1027E0000422DFE74FF4EA62ADF810200922ECE79B
:1027F0001B68A5F86C300024204607B0F0BD1B68AC
:10280000A5F86E30F7E713290ED0142904D0122949
:1028100006D06FF08504EFE71B6885F87030EAE7B3
:102820001B6885F87130E6E71B6885F87230E2E7CF
:102830001A68092AEDD801A151F822F0452A0000B2
:102840007B28000065280000AF27000075280000E5
:10285000AF27000001290000872900002D2A000071
:10286000392A00001A790221204607B0BDE8F0405D
:10287000FFF7C6BE1A790421F6E7204608F05CFA95
:10288000002894D1102301260A27ADF81030CDE995
:1028900000670DF10F03032204A920468DF8126092
:1028A00008F0D3F9002882D17A4B0493FA23CDE9BA
:1028B000006304220DF10F0304A9204608F0C5F9B6
:1028C00000287FF474AF3146204608F064FC0028ED
:1028D0007FF46DAF704B04932046CDE900670DF196
:1028E0000F03042204A908F0B0F9044600287FF47D
:1028F0005EAF85F86560D5F8000106F01FFA7BE74A
:10290000204608F019FA00287FF451AF40F2E52381
:1029100001260A27ADF81030CDE900670DF10F034D
:10292000022204A9204608F090F900287FF43FAF66
:102930001023ADF8103002238DF81230CDE9006776
:102940000DF10F03032204A9204608F07EF90028A8
:102950007FF42DAF40F25273ADF810304FF4FA739C
:10296000CDE90063032220460DF10F0304A98DF881
:10297000122008F06AF9044600287FF418AF0623F5
:1029800085F86530B7E740F25273ADF81030012694
:1029900000230A278DF81230CDE900670DF10F03EF
:1029A000032204A9204608F050F900287FF4FFAE66
:1029B0003A4B0493B5F86C301922534303F5FA737C
:1029C0004FF47A72B3FBF2F38DF81430B5F86E3031
:1029D00004A91B01CDE90067B3FBF2F320468DF893
:1029E000153006220DF10F0308F02FF900287FF4AF
:1029F000DEAE1023ADF81030CDE900670DF10F0306
:102A0000032204A920468DF8126008F01EF9002860
:102A10007FF4CDAE2046314608F0BDFB04460028C9
:102A20007FF4C5AE072385F86530E5E6204607B09C
:102A3000BDE8F04008F05DB9204607B0BDE8F040C1
:102A400008F07AB9204608F077F900287FF4AFAE95
:102A5000204608F04EF900287FF4A9AE44230493E1
:102A6000FA210123CDE90031042204A90DF10F035D
:102A7000204608F0EAF8014600287FF498AE204688
:102A800008F089FB044600287FF491AE85F86500C4
:102A9000B2E600BF440001004000121846040001E5
:102AA0002DE9F04391B04568D0F8108013234FF41E
:102AB000EA69ADF828908DF82A3095F832308DF813
:102AC0002B3001260A27CDE900670DF126030422E9
:102AD0000AA9044608F0B9F8002840F0E48014235D
:102AE000ADF828908DF82A3095F833308DF82B30DA
:102AF000CDE900670DF1260304220AA9204608F05B
:102B0000A4F8002840F0CF801523ADF828908DF868
:102B10002A3095F834308DF82B30CDE900670DF16F
:102B2000260304220AA9204608F08FF8002840F066
:102B3000BA801623ADF828908DF82A3095F83530F4
:102B40008DF82B30CDE900670DF1260304220AA988
:102B5000204608F07AF8002840F0A5804FF404736E
:102B6000ADF8283095F836308DF82A30CDE9006779
:102B70000DF1260303220AA9204608F066F8002872
:102B800040F091801923ADF828908DF82A3095F8FF
:102B90002C308DF82B3095F82D308DF82C3095F8A1
:102BA0002E308DF82D30CDE900670DF12603062279
:102BB0000AA9204608F049F8002874D11723ADF877
:102BC00028908DF82A3095F828308DF82B3095F81C
:102BD00029308DF82C30CDE900670DF12603052250
:102BE0000AA9204608F031F800285CD11823ADF876
:102BF00028908DF82A3095F82A308DF82B3095F8EA
:102C00002B308DF82C30CDE900670DF1260305221D
:102C10000AA9204608F019F8002844D14FF4887317
:102C2000ADF82830CDE900670DF1260303220AA98B
:102C300020468DF82A6008F008F8A0BB63688DF87C
:102C40003200ADF830909A69CDF83320DA69CDF8CA
:102C500037201B6ACDF83B30CDE900670DF1270323
:102C60000F220CA9204607F0F0FFE0B9AB8CA8F8C2
:102C70006C30EB8CA8F86E30B5F82F30A8F87030B7
:102C800095F8313088F87230022540F21123266918
:102C9000ADF83030019700950AAB2A460CA92046C2
:102CA00007F0D3FF28B16FF01505284611B0BDE835
:102CB000F0839DF8293086F87730132340F251795C
:102CC0008DF83230CDE900570AAB03220CA920461B
:102CD000ADF8309007F0B9FF0028E4D19DF8293015
:102CE00086F8733014238DF83230CDE900570AABE3
:102CF00003220CA92046ADF8309007F0A6FF00286B
:102D0000D1D19DF8293086F8743015238DF83230F2
:102D1000CDE900570AAB03220CA92046ADF830904C
:102D200007F093FF0028BED19DF8293086F8753052
:102D30001623CDE900578DF8323003220AAB0CA9D7
:102D40002046ADF8309007F080FF05460028AAD154
:102D50009DF8293086F87630012388F80431002266
:102D60000023CDE906230E23CDE90203CDE900407F
:102D70000490094B4FF4805208F5446108F180003B
:102D800005F0ACFDC8F8000105F0BAFED8F8000166
:102D900002490BF011F888E729B0000075ED00003A
:102DA000014806F021BC00BF94E8000038B5044695
:102DB00018B90F4B0F485B6898476168B1F5683FD9
:102DC00010D0B1F5680F0DD00B4DA9420AD011F407
:102DD0006861206807D0014608480AF032FE0023E7
:102DE0002360656038BD14220BF045F9F9E700BF98
:102DF0005402002086ED00002C5F5CA9C430002046
:102E000008B520B34368B3F5683F10D101220368C9
:102E1000BFF35B8F53E8001F002903D143E8002074
:102E20000028F7D1BFF35B8F0DD1002008BD094A00
:102E300093420AD000684FF0FF324FF0FF3305F0A5
:102E400001FA0028F1D00448F0E70448EEE76FF4F7
:102E5000E040EBE72C5F5CA9E98FFFFFEA8FFFFF03
:102E600008B5D8B14368B3F5683F10D100220368B4
:102E7000BFF35B8F53E8001F012903D143E8002013
:102E80000028F7D1BFF35B8F0BD1002008BD074AA4
:102E9000934208D0006805F04DFAF6E76FF4E04081
:102EA000F4E70348F2E70348F0E700BF2C5F5CA9B2
:102EB000E98FFFFFEA8FFFFF10B5044618B91D4BDD
:102EC0001D485B6898476368B3F5683F2FD0B3F53A
:102ED000680F2CD0194A934219D1236803BB1848B4
:102EE0004FF0FF324FF0FF33214605F0B3F808B939
:102EF00023681BB90F4B13485B689847206814225E
:102F000000210BF0B8F84FF46863636008E0B3F594
:102F1000683F0DD83A2B03D040F6BA629342DED117
:102F200020680AF03DFE636843F03A03636010BD19
:102F3000054AF3E75402002086ED00002C5F5CA9EF
:102F4000C4300020ACED00003A00003A08B5064954
:102F50000648402314220AF066FDBDE808400449F3
:102F6000044806F0B3BB00BFC42B0020C4300020CF
:102F70009CE80000B0E8000008B50348034A0021BF
:102F8000121A08F0C9FB08BD40040020E83F0020E9
:102F90000748084A084908B5121A08F0BFFB074855
:102FA000074A0849BDE80840121A08F0B7BB00BF3D
:102FB00000000020300400200CF50000000000207C
:102FC000000000200CF5000038B505460C4699B10C
:102FD000D1E901230F48096807F095F9D4E90423E2
:102FE000E1680D4807F08FF9E1690C4807F08BF9AB
:102FF000A1690B4807F087F9012D05D1EFF3058191
:103000000848103907F07FF921462846BDE83840C6
:1030100004F0E0BED9ED000009EE000039EE00003A
:1030200049EE000078EE000030BFFFF7FDBF00BFA3
:103030002DE9F0410B4EDFF8308006EB0807CC1B82
:1030400005463246094920460BF007F8A0194246CA
:103050000021083C0BF00FF82C6707F10800BDE8D1
:10306000F08100BF0000000004000000E4E7000061
:10307000054B5A699B689A421FBF044A536843F044
:1030800080535360704700BFB03D002000ED00E06A
:103090002DE9F843324D804632488946174607F0FD
:1030A00032F9AB6ADE0622D52F4807F02CF911243D
:1030B000AB6A1D0703D52D4807F025F91224284DCA
:1030C000AB6A980715D52A4807F01DF96E6BAB6AF5
:1030D000190642D52748314607F015F9B9F1000F16
:1030E00003D0AB6A23F08003AB62132403E0102407
:1030F000DEE76FF015061A4DAB6ADA0703D51E48F6
:1031000007F001F91424AB6A9B0603D51B4807F0AE
:10311000FAF81524124B9A6AD50602D49A6A9007D7
:103120000AD55B68190507D54146304600F002FB19
:1031300010B180F309880224094B9A6A920642BFB3
:103140005A6A22F400525A629A6A42F0FF029A6264
:1031500000233B702046BDE8F8836FF01506C4E7F6
:1031600000ED00E08CEE0000A3EE0000D7EE0000C2
:10317000EBEE000004EF00001BEF00003BEF00004F
:1031800010B51D4C1D4807F0BEF8A36A990130D553
:103190001B4807F0B8F81E20A36ADA0103D51948C6
:1031A00007F0B1F81F20144CA36A1B0303D516487F
:1031B00007F0A9F82120A36A590303D5134807F0A3
:1031C000A2F822200C4CA36A9A0303D5104807F0FA
:1031D0009AF82320A36ADB0303D50E4807F093F87F
:1031E0002420054A936A6FEA03436FEA134393620C
:1031F00010BD1D20D0E700BF00ED00E06BEF000028
:1032000084EF000098EF0000B3EF0000D2EF000061
:10321000F8EF000013F0000070B5244C0646244877
:103220000D4607F070F8A36AD90435D5214807F098
:103230006AF81720A36A1A0503D51F4807F063F838
:1032400018201A4CA36A9B050FD51C4807F05BF8A1
:10325000A16BA36A180407D5194807F054F81EB1EA
:10326000A36A23F40043A3621920104CA36A5905F2
:1032700003D5144807F047F81A20A36ADA050DD5DC
:10328000114807F040F81B20084A936A43F47F4333
:10329000936200232B7070BD1620CBE7A36A9B04BA
:1032A000F2D50A4807F02FF81C20EDE700ED00E00A
:1032B0003FF0000056F00000D7EE000068F000007C
:1032C00082F0000098F00000B4F000003BEF000036
:1032D0002DE9F0415B4B5F688AB00446C7F30806EE
:1032E000002585F31188BFF36F8F02F07F43B3F1A0
:1032F0007F4F06D102F00C03082B13D1524807F080
:1033000002F800252C464FF00008F31E8DF80780C8
:10331000092B00F28680DFE803F00A7A7E76848447
:103320008484848210074CBF0C460125EBE7474894
:10333000444E06F0E8FF8DF80780F36A9A0704D53B
:10334000434806F0E0FF002330E0F36A002B01DA87
:103350004048F6E7F36A5B00F5D53F4806F0D3FF37
:103360007369A26943F480737361BFF34F8FBFF336
:103370006F8F736932F8022C23F480737361BFF38B
:103380004F8FBFF36F8F4DF602739A4209D0B36A25
:10339000DBB253B30DF1070201212046FFF778FE9F
:1033A00033E021682D4806F0AEFF23689DF8072022
:1033B000C2B902AE04F1200720686168324603C238
:1033C0000834BC421646F7D1099AB5B3C2F30801D6
:1033D00021B96FEA52226FEA4222099202A91846E5
:1033E000FFF7F2FD0AB0BDE8F081B36A13F47F4F36
:1033F00005D00DF107010120FFF70EFF05E0B36ACC
:10340000B3F5803F9FD3FFF7BBFE0346CEE70DF138
:1034100007020021C1E70DF107010020ECE7104889
:103420008FE7104B1049114817F4F87FA6F11002EE
:1034300018BF194606F067FF85E722F4FF7222F0F5
:103440000102CAE700ED00E0FBF0000027F10000F8
:103450003FF1000061F1000070F1000090F1000008
:10346000ADF10000E2F00000CDF00000D2F100006C
:10347000044B5A6942F010025A615A6922F008025C
:103480005A61704700ED00E0EFF30880EFF3098127
:1034900001B57246FFF71CFF01BD00BF002080F39D
:1034A0001488BFF36F8F0F4880F3088803F0C4FBC4
:1034B00000200D490860BFF34F8F00F02BF820204B
:1034C00080F3118809484FF40461401880F309889B
:1034D000EFF314800221084380F31488BFF36F8F49
:1034E00000F0F8F84056002094ED00E080480020FD
:1034F0000749D1F890200023C2F3072218469342CF
:1035000000DB7047C1F89830C1F8A0000133F6E73E
:1035100000ED00E008B572B6002383F31388FFF7CF
:10352000E7FF144B4FF0FF32C3F88020C3F884202C
:10353000C3F88820C3F88C20C3F89020C3F89420E7
:10354000C3F89820C3F89C20C3F88021C3F88421D5
:10355000C3F88821C3F88C21C3F89021C3F89421C3
:10356000C3F89821C3F89C2162B6BFF34F8FBFF315
:103570006F8F08BD00E100E0084B9B6883420BD1D0
:10358000EFF3058343B1064B5A6842F080525A600C
:103590005A6A22F400425A6205F01ABDB03D00207A
:1035A00000ED00E014498A684FF030001044EFF35A
:1035B000098C80E8F01F202080F31288BFF36F8F02
:1035C0000E4F4FF000664A698A603E60106F0C4CE7
:1035D0002060506F0023536780F3118804B51046B4
:1035E00000F00CF9BDE8044002F1300090E8F01F53
:1035F0008CF3098870470000B03D002004ED00E026
:10360000E03000201EF0040F0CBFEFF30880EFF352
:103610000980816911F8021C0229FFD001B57246A8
:1036200008F07EF801BD00BF40B2002807DB044A65
:103630004109012300F01F00834042F82130704708
:1036400000E100E040B200280CDB4309064900F02D
:103650001F0020330122824041F82320BFF34F8F07
:10366000BFF36F8F704700BF00E100E0054B4209D8
:1036700000F01F0053F82220012303FA00F010404D
:10368000704700BF00E100E040B20028A8BF00F191
:10369000604001F10101B8BF064B4FEA4111ACBFD8
:1036A00000F5614000F00F00C9B2B4BF195480F8B2
:1036B0000013704714ED00E0044B054A23F07F032C
:1036C0009360BFF34F8FBFF36F8F70470000000010
:1036D00000ED00E008B5FFF7EFFF074AD2F88830A9
:1036E00023F47003C2F88830FFF746FCFFF750FC64
:1036F00000F05AF804F036FC00ED00E042F8203CFF
:10370000009B42F81C3C0A49019B42F8183C029B72
:1037100042F8143C21F001014FF0807342F8043C60
:1037200042F8081C0023203A02654367704700BF37
:10373000291D0000094A0346906870B113F1160F65
:10374000006E05D0A0F140029A4205D8834203D210
:10375000814228BF0020704700207047B03D002004
:1037600008B515460B4A0C4B9060026F1A600E4666
:1037700000F044F82C4686F309880020034B984754
:103780002046002100220023014C204745B70000BD
:10379000291D0000B03D0020E0300020014B102228
:1037A0001A61704700ED00E0044800232021C21890
:1037B0000133302B82F80013F9D1704700E100E0AB
:1037C00008B5EFF30583064A103B02EBC30152F83C
:1037D000330049688847BDE80840FFF749BC00BF8F
:1037E000C0E40000024B034A0348012100F076B810
:1037F0000000042000000020C0E80000026E054B1D
:10380000403A1A60044A4021C3E9011218460121D6
:1038100000F06EB8E430002000000B15084AC2F832
:1038200098000B6823F01F03034343F01003C2F812
:103830009C308B6843F00103C2F8A030704700BF92
:1038400000ED00E02DE9F043DFF8608085B00E4622
:103850001F4604464FF00009B14523DA6068D8B12D
:103860003FB1411E08421BD11F2819D923681942B4
:1038700016D12368019307F088FFA36803430393DD
:10388000D8F89050C5F30725D0B2013DA84207D81B
:1038900001A9FFF7C3FF421C09F101090C34DBE762
:1038A0006FF01502104605B0BDE8F08300ED00E0B2
:1038B000044B0522C3F89420BFF34F8FBFF36F8FE3
:1038C000704700BF00ED00E0BFF35F8F024B0022A6
:1038D000C3F89420704700BF00ED00E010B5034C22
:1038E00001232278FFF7AEFF207010BDC83F0020F3
:1038F00008B50B4A00231278FFF7A4FF10F1160F4A
:1039000007D0084A0021D2F89030C3F30723984229
:1039100000DB08BDC2F89800C2F8A0100130F2E741
:10392000C83F002000ED00E02DE9F043534B544C1C
:10393000D3F890302568C3F307239D4285B000F289
:103940009A80FFF7C1FF00200C2685421AD14D4C0A
:103950004D4F25706846FEF70FFBDFF82081DFF83A
:103960002C9106460025AE4213D12378434900200E
:10397000D1F89020C2F30722934276DBFFF798FF3D
:10398000002042E0616806FB0011FFF747FF0130AD
:10399000DBE7009800EB05114FEA051CCB683B40C4
:1039A000B3F5000F48D00AD8B3F5001F30D0B3F5F7
:1039B000800F36D0B3F5801F10D00135D3E7B3F1B7
:1039C000807F42D0B3F1007FF7D150F80C30886887
:1039D0004A6807F0DAFE40F4802009E050F80C3025
:1039E00088684A6807F0D1FE40F0885040F43020E3
:1039F000CDE901230390D8F890302078C3F3072352
:103A0000013B98422AD96FF0150005B0BDE8F0835C
:103A100050F80C3088684A6807F0B7FE40EA0900A1
:103A2000E6E750F80C3088684A6807F0AEFE40F0D0
:103A3000C06040F40030DBE750F80C3088684A681A
:103A400007F0A3FE40F08270D2E750F80C3088688F
:103A50004A6807F09AFE40F08870C9E701A9FFF7AD
:103A6000DDFE237801332370A7E7C1F89830C1F851
:103A7000A00001337CE74FF0FF30C6E700ED00E027
:103A8000CCE80000C83F00200000F0FF0000081153
:103A900008B5024B1B689847002008BDF030002095
:103AA000034B044A1860937843F002039370704705
:103AB000F03000201401002008B50649064821F026
:103AC0000701C1F1005202F5802206F0C2FB00207E
:103AD00008BD00BF47650020F4300020024B0122E2
:103AE000C3F840250020704700E0014048B1054B75
:103AF000054A1B68B3FBF2F35843044B43F0010340
:103B0000184770474002002040420F0000E80000C4
:103B1000020600F07F0312D5082B05D1010700F043
:103B20000F0306D50E48704710F0780F12D100F041
:103B30000F034C2000EB43100A4B18447047082B2E
:103B400005D1020700F00F0306D50748704710F0B3
:103B5000780FF6D000207047044800EB4310704700
:103B60004C320020003100206C3300206C320020E9
:103B7000014902480AF0FEB828310020A0270020A1
:103B8000014601480AF093B8580300200248002279
:103B9000002304F01FBC00BF5803002013B51248D7
:103BA00000F0B4FD114B98421AD1114803F0C2FB4A
:103BB0000024104803F000FC0F49104800944FF017
:103BC000FF334FF4806204F0D3FD0D490B480AF037
:103BD000F3F80C480C490AF0B1F8204602B010BDC9
:103BE0006FF00400FAE700BFF13D00000000AD0BEC
:103BF00003F20000F0E8000040440020A02700206D
:103C0000F5F10000283100200D3F000010B50E49ED
:103C1000BFF35B8F002351E8002F012A03D141E855
:103C200000300028F7D1BFF35B8F0CD151F8044C62
:103C30001439204606F06CFC783004D12046BDE8EB
:103C4000104006F041BC10BD2031002038B50024E2
:103C500064F07F00C0B2FFF75BFF013407F0AAFDFC
:103C6000082CF5D10E4D0024E0B2FFF751FF036997
:103C700003B90561013407F09DFD082C05F14005ED
:103C8000F2D1084807F096FD074BD3F87C2212B911
:103C9000064AC3F87C22064807F08CFD002038BD98
:103CA000903700204C32002000310020903300205B
:103CB0006C33002010B5054CFFF768FF20B1416858
:103CC000204609F0BEFEF7E710BD00BFDC02002071
:103CD00007B500230E48002201A904F0BBF990B1FA
:103CE000FFF7E8FF0A480022002301A904F0B2F917
:103CF00038B90198042340600374FFF741FFFFF7D0
:103D000037FF002001E00198406003B05DF804FB3C
:103D1000DC020020022810B511D8094B1C5CFFF70B
:103D2000D7FF60B1002202740472FFF729FF054B30
:103D300093F824301BB1BDE81040FFF719BF10BD48
:103D400000F2000000310020F8B5877806463846BA
:103D5000FFF7DEFE3B06F578044612D5002D43D171
:103D6000FFF7B6FF034600283ED00122A577027474
:103D7000032202739C60FFF703FFBDE8F840FFF7E2
:103D8000F7BE4DB1012D2FD1FFF7A2FF034658B367
:103D9000657705740573EDE7FFF79AFF20B3B278F6
:103DA000124B12F0800F02F0080111D041B1D3F88C
:103DB000A836E36001230374022303738460DAE707
:103DC00002F00F02142101FB0233D3F80836F0E7AA
:103DD00011B1D3F8A837ECE702F00F02142101FB70
:103DE0000233D3F80837E4E7F8BD00BF00700240A3
:103DF000F0B5064689B01422002103A80AF03BF969
:103E00003378013B052B21D8DFE803F07A03141443
:103E10006A1603238DF814300024FFF759FF034678
:103E2000A0B1047400F10802DDE9050182E8030095
:103E300018461DE00423EDE7B7783846FFF768FE23
:103E4000837A044623B1013B022B43D909B0F0BD6C
:103E50003B06F57813D5002DF8D1FFF739FF03465F
:103E60000028F3D00122A5770274032202739C601C
:103E7000FFF786FE09B0BDE8F040FFF779BE55B107
:103E8000012DE3D1FFF724FF03460028DED065773C
:103E900005740573EBE7FFF71BFF07460028D5D035
:103EA0000123037402230373846004F10C01B078CE
:103EB00007F0A4FC134AE168B2F88C328B4206D9B1
:103EC0005B1AA2F88C3200F043FF3846D0E7A2F824
:103ED0008C52FAE7304609B0BDE8F040FFF734BF36
:103EE00001A800F013FF9DF80530052B04D19DF8C3
:103EF000043013F0600FA9D0034B059301248CE725
:103F000002248AE7003100206C3200202DE9F043C2
:103F1000A64CDFF89C9285B08046FFF737FE074637
:103F200010B905B0BDE8F08394F825303A7C3BB970
:103F3000002A00F0878079689D4809F082FDECE74F
:103F4000042A43D8DFE812F07E00050001011701C2
:103F500040013B7BBD68032B38D8DFE803F0023E0D
:103F60005B606E69934B002232607260D3F88014FC
:103F70003170D3F884147170D3F88814D3F88C049A
:103F800041EA00217180D3F89014D3F8940441EAF7
:103F90000021B180D3F89814D3F89C3441EA03236C
:103FA000F3800823EB6030687168834B03C31146CC
:103FB0002B68687A984796F90030002B09DBF38864
:103FC0009AB232B1A4F88C3200F0C2FE7968484649
:103FD000B3E70023A4F88C32F8E76B7F002BF5D011
:103FE0002B7F002BF2D000266E774FF0FF32734804
:103FF0002E774FF0FF3307F0F0FB6B6901936B688E
:10400000CDE9023601A9687A00F0D6FB6B4807F0CB
:10401000E6FBDBE72B680121687A9847D6E7AB7AA5
:104020006BB9EB7F5BB965484FF0FF324FF0FF3360
:1040300007F0D3FB00F092FE604807F0D0FB2B683E
:104040000221E9E73A7A042AC0D8DFE802F05903EE
:104050002367730000F01AFB05460028B6D100F074
:1040600055FABFF35B8F5649012351E8002F002A10
:1040700003D141E800300028F7D1BFF35B8FA5D111
:1040800041F8085C41F8105CE0696361143906F09E
:10409000C4F99BE7002565F07F00C0B2FFF738FD4B
:1040A000037A13B1407A00F087FF0135082DF2D171
:1040B00094F854311BB194F8550100F07DFF0025B0
:1040C000E8B2FFF725FD037A13B1407A00F074FFE0
:1040D0000135082DF4D194F874321BB194F87502AF
:1040E00000F06AFF002000F0B5FA012384F82530C3
:1040F0002368002B3FF46AAF00210220984765E750
:10410000002584F8255000F0EDFEFFF77FFD2368C1
:10411000002B3FF45BAF29460420EFE7002B3FF470
:1041200055AF00F0BDFA2368002B3FF44FAF0021DC
:104130000520E3E72268002A3FF448AF002B3FF454
:1041400045AF00210620904740E708F110054FF0E9
:10415000FF334FF0FF32284607F03FFBFFF776FDB5
:10416000284607F03CFB58F8283C002B3FF42EAFC4
:1041700000210120C2E794F874327BB1012584F854
:10418000895284F88852FFF7A3FD38B10D4A0574AF
:1041900005738260FFF7F4FCFFF7EAFC58F8283C4F
:1041A000002B3FF413AF00210A20A7E700310020C5
:1041B000DC02002000700240043100203831002071
:1041C000203100206C33002009F086FA00F08AFECE
:1041D00000F092F9FFF76EFDFFF738FD09F075FA70
:1041E000014800F093FAF1E6F13D00002DE9F043BB
:1041F000DFF8E4801E4698F8243085B007468946EB
:104200001546002B61D098F82530002B5DD00306B1
:104210005ED5FFF77DFC0446002859D0037A002BB9
:1042200056D04FF0FF334FF0FF3208F1380007F05F
:10423000D4FAA37F4BB108F1380007F0D0FA6FF041
:104240000A04204605B0BDE8F083A37AC5B13BB3AC
:104250000123A3774FF0000801A93846CDE9019565
:10426000CDF80C8000F0A8FA1C4B984229D084F8B5
:104270001E801EBB6FF00404194807F0B0FAE0E797
:10428000E27F02B1E577002BE2D100F06DFD8742BD
:10429000DED000F063FD124807F0A1FA0024D0E759
:1042A000B8F80A30AB42F0D96268B5FBF2F302FB12
:1042B0001353002BE9D10123E377E6E7C6F800802A
:1042C000D8E706B135600024D6E76FF01204B8E7EE
:1042D0006FF01504B5E700BF003100200000AD0B02
:1042E000383100202DE9F0411D46204B174693F848
:1042F00024200E46002A33D093F8253083B30306DA
:1043000031D401B97FBBFFF703FC044658B3037AED
:104310004BB34FF0FF3316484FF0FF3207F05DFA12
:10432000E368BB42984628BFB84646B93FB905B1D5
:104330002B600F4807F053FA0020BDE8F081A16917
:104340004246304609F089FEA3694344A361E3680D
:10435000A3EB0803E360002DEBD0C5F80080E8E78D
:104360006FF01200E9E76FF01500E6E7003100207A
:104370003831002070B51E4D95F82420034682B3D5
:1043800095F825206AB31B062ED4FFF7C1FB04461F
:1043900050B3037A43B34FF0FF334FF0FF3205F1D0
:1043A000380007F01AFAE368B3B901266369267783
:1043B000A361637F83B1FFF78BFC30B905F138004F
:1043C00007F00DFA6FF00B0070BD06748460067381
:1043D000FFF7D6FBFFF7CCFB064807F000FA0020FA
:1043E000F2E76FF01200EFE76FF01500ECE700BFA7
:1043F000003100203831002008B5074B93F82430F5
:1044000023B1FFF785FB20B1406808BD6FF01200B3
:10441000FBE76FF01500F8E7003100204FF0805304
:10442000D3F83021082A06D1D3F83431052B04D82B
:10443000034AD05C7047002070470120704700BFDE
:1044400004F20000064B10F0800FA3F1D80208BF61
:10445000134600F00F00182202FB0030704700BF27
:10446000A83A0020EFF31180202383F31288BFF3D2
:104470006F8F0A4BD3F8001C032261B949F27531E2
:10448000C3F8001CC3F8142DC3F8001C80F3118876
:10449000BFF36F8F7047C3F8142DF7E700E00640B5
:1044A000EFF31180202383F31288BFF36F8F0A4B41
:1044B000D3F8001C61B949F27532C3F8002CC3F877
:1044C000141DC3F8002C80F31188BFF36F8F704761
:1044D0000022C3F8142DF6E700E006404FF08053A9
:1044E000D3F83031082B02BF024B0022C3F81C2C3A
:1044F000704700BF00700240024A00231360024A66
:1045000013707047883B0020CD3F002008B54A4B10
:104510004FF40062C3F80024FFF780FF08B1FFF7F3
:10452000A1FF4FF08053D3F83031082B18D1EFF3AF
:104530001180202383F31288BFF36F8F3F4BD3F892
:10454000001CC02200296ED149F27531C3F8001C4D
:10455000C3F8142CC3F8001C80F31188BFF36F8FCD
:10456000354B0122C3F80025D3F800241205FBD5F2
:104570004FF40062C3F800244FF08053D3F8303179
:10458000082B17D1EFF31180202383F31288BFF398
:104590006F8F2A4BD3F8001C002947D149F275329E
:1045A000C3F8002CC3F8141CC3F8002C80F3118846
:1045B000BFF36F8FFFF732FF30B1FFF771FFFFF7E7
:1045C0002DFF08B1FFF74EFF4FF08053D3F8303185
:1045D000082B194B0AD140F2E372C3F8002840229D
:1045E000C3F80428BFF36F8FBFF34F8F8022C3F847
:1045F0001C250122C3F83025114B40F2FF121A602E
:10460000104B00211960104B1970FFF767FF0F4B1B
:1046100019700F4B02221A70FFF700FF50B1BDE86E
:104620000840FFF73DBFC3F8142C95E70022C3F8FC
:10463000142CBBE708BD00BF0070024000E006403C
:10464000843B0020803B0020C93F0020CB3F00205E
:10465000CD3F0020094B002210B51A70084A094BC3
:10466000094C002808BF1346C4F800332720FEF782
:10467000DBFF0123C4F8043510BD00BFCC3F002090
:10468000FDFFDF01FDFFFF0100700240034B1878C2
:10469000012894BF00200120704700BFCD3F0020BB
:1046A00010B54FF0FF324FF0FF33154803F0F8FE1E
:1046B000EFF31181202383F31288BFF36F8F114B27
:1046C0001B7803F0FF0483B10F4BD3F8002412F4DE
:1046D00000720AD10120C3F82C05D3F82C05D3F8B9
:1046E0000004800502D5C3F82C25002481F311882D
:1046F000BFF36F8F024803F09FFE204610BD00BF3E
:1047000048030020CC3F002000700240F8B51C4B4D
:104710001C7894BB1B4A106001221A7040F2FF17EC
:10472000264664F07F0514F0080FEDB214BF394639
:104730004021284607F05DF82846FFF783FE013444
:10474000092C867506730661EBD1002440F2FF1731
:10475000254614F0080FE6B214BF39464021304612
:1047600007F047F83046FFF76DFE0134092C8575D8
:1047700005730561EDD10448F8BD0448FCE700BFAE
:10478000CD3F0020883B00200000AD0B0500AD0BA5
:10479000084B10F0800F00F00F0114BFD3F8102564
:1047A000D3F8142501238B40134214BF01200020AD
:1047B000704700BF007002402DE9F8430246EFF356
:1047C0001187202383F31288BFF36F8F030703D170
:1047D000184B1B78834229D1174B184E1C6835683B
:1047E000104606F0FEFFE443A4B24FF001092C434B
:1047F00009FA00F814EA08041AD11046FFF722FE5D
:1048000080F80C90034607C91C6183E807009C757B
:104810000B4B0C4845EA080580223560C3F804219B
:1048200087F31188BFF36F8FBDE8F8830648F7E779
:104830000648F5E7CB3F0020843B0020803B00206A
:1048400000E100E00000AD0B0A00AD0B0B00AD0B6A
:1048500010F0080F074B06D0D3F8C00410F4803FC7
:1048600018BF0020704700F00F0000F5947053F857
:1048700020007047007002402DE9F74FAB4BAC4E63
:10488000D3F85421DAB10022C3F85421D3F8041329
:10489000890214D58DF80420D3F82025ADF8062020
:1048A000D3F8C034002B336814BF4FF001224FF40B
:1048B0008072134333609F4B01A81B6898479B4B42
:1048C000D3F8604134B10022C3F86021D3F86C44BE
:1048D000C3F86C44D3F828214AB10022C3F8282138
:1048E000954B187806F07DFF012383401C43DFF8C9
:1048F0004C82934F98F8005098F9009015F00801F9
:1049000043D1B9F1000F05F00F032EDA8D4A52F8AA
:10491000230020B342F823101422534303F18043B1
:1049200003F51C33D3F80836874A117803F00103E6
:104930004B401370FFF7D2FD844803F07DFD2846FD
:10494000FFF780FD837D032B37D1284606F049FF12
:10495000012303FA00F03B6823EA00033B60DFF821
:10496000D4A101254FF006095DE0794A52F82300F1
:104970000028F4D042F823101422534303F180435B
:1049800003F51C33D3F80837CEE7B9F1000F674BB6
:1049900009DBD3F85021002AE1D00022C3F85021CE
:1049A000D3F8A837C0E7D3F82C21002AD7D00022AB
:1049B000C3F82C21D3F8A836B6E7037BDBB9284629
:1049C00006F00FFF012303FA00F03B68B9F1000F76
:1049D00023EA00033B6001DA882DC0D106238DF85D
:1049E000043000238DF80730524B8DF806501B68B9
:1049F00001A89847B3E7002DB1D14C4B0122DA64EE
:104A0000ADE794FAA4F03268B0FA80F005FA00F34A
:104A10001A430F28326024EA03043A6840F39C806A
:104A2000134200F0A980002CEBD1404BD3F80021B9
:104A30005AB1C3F80041474B1C703F4B1C70012317
:104A400001933C4B01A81B689847384BD3F8582179
:104A5000002A2ED00022C3F85821D3F80044C3F80E
:104A60000044E30508D53B4B01221A700223019351
:104A7000304B01A81B689847A50508D5354B002287
:104A80001A70032301932B4B01A81B6898476005FC
:104A90000FD5304B1A7862B100221A70234B0122D5
:104AA000C3F808259A6504230193224B01A81B68CB
:104AB00098471E4BD3F85C3103B3244B9B681BB95A
:104AC00098F80030590619D0184B0022C3F85C2121
:104AD000D3F88034184A23F07F0313703B6823F027
:104AE00001133B60336823F4803343F001033360E8
:104AF000052301930F4B01A81B6898473A68336858
:104B00001A4200F0EB8011480022002303F0C8FC99
:104B1000002840F0E380054BD3F82C35002B7BD0E8
:104B20000A4803B0BDE8F04F03F086BC00700240B5
:104B3000843B0020883B0020CB3F0020CA3F002060
:104B4000803B002008710240C93F0020480300203C
:104B500030710240CC3F002013407FF464AF60F01E
:104B60007F018DF804908DF806108DF80730DAF883
:104B7000003001A8984756E7A0F110018DF8049085
:104B80008DF806108DF80750F1E749F080052846AA
:104B9000FFF758FC4368B0F814A001689A4528BF95
:104BA0009A4601F06043B3F1005F044604D05448D4
:104BB000524609F052FA5249226863685244226010
:104BC000A268A3EB0A03D20768B2636053D5BAF1B7
:104BD000000F52D1002323734FE011464FF0000A1B
:104BE000604545D1003B18BF0123002A42D0504503
:104BF00040D9012303FA09F32BEA03033B600623A0
:104C00008DF804303F4B8DF8065002221B68A275C8
:104C10008DF8072001A89847D7F800B033681BEA41
:104C200003093FF47DAF19F0012314BF93FAA3F9F0
:104C300099FAA9F9B9FA89F9B9F10F0FA5D9A9F12A
:104C40001005EDB22846FFF7FDFB04462846FFF7A6
:104C5000FFFD6368B4F814C022689842BDD81B1ADF
:104C600000EB020E11466360C4F800E08246B7E72D
:104C70000023BAE768B2002BACD04FF08053D3F8D2
:104C80003031082B02BF204B8222C3F81C2C336822
:104C900088F80050012202FA09F923EA0903336077
:104CA000236915F0080F53442361174B19D10028CD
:104CB00005F00F054FF0140000FB0530A9BF0A35C1
:104CC00003EB8503C0F80017C0F804A7AFBF43F893
:104CD0002520C0F80016C0F804A65A6003B0BDE84D
:104CE000F08F0028B5BFC3F8A016C3F8A017C3F80B
:104CF000A4A6C3F8A4A7B4BF5A629A64EEE700BFA3
:104D000090390020883B002000700240002303609F
:104D100043600E4BD3F880240270D3F88424427091
:104D2000D3F88824D3F88C1442EA01224280D3F8C5
:104D30009024D3F8941442EA01228280D3F8982474
:104D4000D3F89C3442EA0323C380704700700240CA
:104D5000014B0122DA64704700700240014B0122CE
:104D60001A65704700700240014B1878704700BF09
:104D7000CB3F002010B50246EFF31184202383F3CC
:104D80001288BFF36F8F06F02CFD0B49012303FA45
:104D900000F00B6823EA00030B6012F0080101BF6A
:104DA00002F00F02054B02F5947243F8221084F3CF
:104DB0001188BFF36F8F10BD843B0020007002404C
:104DC000F7B50146EFF31185202383F31288BFF373
:104DD0006F8FFFF737FB0646084606F002FD0122FB
:104DE00011F0800F02FA00F22D4818D1036832EA60
:104DF00003040AD00846FFF7BDFF0323B37585F30C
:104E00001188BFF36F8F03B0F0BD2649347323EAD6
:104E1000020303600B6823EA02030B60EDE70B0754
:104E200015D48029204B2FD001F00F0404F2DA347E
:104E30006400C3F80048D3F80448D3F80478E4B217
:104E400044F002043C43C3F80448D3F80438154F37
:104E500004683B6864EA030C1CEA020FCFD01343DA
:104E60003B60002333730323B3758DF807300F4B7A
:104E70008DF8061024EA0204062204601B688DF8EF
:104E8000042001A89847BAE740F2B474C3F8004878
:104E9000D3F80448D3F80478E4B244F00404D1E72A
:104EA000803B0020843B002000700240883B0020B3
:104EB00038B50446094D4FF0FF324FF0FF33284616
:104EC00003F0EEFA2046FFF77BFF284603F0B4FA22
:104ED000034B8022C3F8042138BD00BF48030020E3
:104EE00000E100E0F8B54FF0FF324FF0FF332B4800
:104EF00003F0D6FA2A4B8022C3F884212720FEF73C
:104F0000B5FB98B1274E284B34681B68240C240449
:104F10001C43012764BB254D40F2FF13336027205B
:104F2000C5F80445FEF78EFBC5F80043204A137808
:104F30008BB11E4B0021C3F808110121C3F80026D4
:104F4000C3F804165960D3F808110029FBD00021DA
:104F5000C3F808111170154B0022C3F80025FFF7A4
:104F6000BDFA0E4803F068FA124B01221A70F8BD20
:104F700094FAA4F5B5FA85F50F2D2846C6BFA5F11C
:104F80001000C0B240F08000030701D4FFF718FF03
:104F900007FA05F524EA0504BCE700BF4803002032
:104FA00000E100E0843B0020803B002000700240D4
:104FB000C93F0020CD3F002070B50446FFF7E8FB55
:104FC00068B904F00F02012514F0800F144B05FAA4
:104FD00002F205D0D3F810150A43C3F8102570BDAE
:104FE000D3F814150A43C3F81425631E062BF6D80C
:104FF000EFF31186202383F31288BFF36F8F2046CF
:10500000FFF7B8FE204606F0ECFB064A1368854021
:1050100023EA0503136086F31188BFF36F8FDEE781
:1050200000700240803B0020084B70B5C31A0D464B
:1050300007499B10044659430648402206F0FDFBF1
:105040002B4601462046BDE870401847A03B002093
:10505000B76DDBB660E2000073B50C4C0C4A402320
:10506000041B00930D460B460A49A41061430646F3
:10507000094806F00EFC011E05DA30462B4602B048
:10508000BDE87040184702B070BD00BFA03B0020D3
:10509000FDB80000B76DDBB660E200000022F8B595
:1050A000012105461046FEF7EFFA104801F07AFE9E
:1050B0000446B8B901F096FE2F690D49384605F04F
:1050C00099F9031E09DB01263E642D69084905F1A3
:1050D0001C0005F08FF9031E02DA1C462046F8BDBD
:1050E000EE64FBE76FF00404F8E700BF2152000014
:1050F000F4E800001FB500220123CDE90223094A8C
:10510000CDF800D06B46CDF804D006F0F0FB0028B7
:1051100005DB4FF480420023684603F0C1F905B077
:105120005DF804FB0FB9000010B5EFF311842023E4
:1051300083F31288BFF36F8F074A136823F00201CD
:10514000DB07116002D4012007F0A8FF84F3118867
:10515000BFF36F8F10BD00BFF03B002030B4104B89
:105160000C2202FB003301460020D3E90E52986363
:10517000EFF31180202484F31288BFF36F8F1C6C2F
:1051800004F0C00444F002041C6480F31188BFF3EF
:105190006F8F1DB12B46034830BC184730BC704799
:1051A000A03B002060E2000010B4EFF31182202346
:1051B00083F31288BFF36F8F1748016841F0020430
:1051C0000460C80707D482F31188BFF36F8F0120F2
:1051D00010BC07F05BBF4FF08041D1F80C04D1F850
:1051E0000C14C907EFD5EFF3118083F31288BFF3D6
:1051F0006F8F0A490B6C03F0C00343F002030B648A
:1052000080F31188BFF36F8F82F31188BFF36F8F24
:10521000002010BCFFF7A2BFF03B0020A03B002005
:1052200010B1012804D07047034B1B6C5B0701D100
:10523000FFF794BF704700BFA03B0020024AC3B2F3
:105240001C2003FB00207047A03B00202DE9F0410B
:105250003849BFF35B8F0746012251E8003F41E820
:1052600000200028F9D1BFF35B8F33B932493348AE
:105270004B60CB608A6005F0D0F87B1E012B2BD8E9
:10528000012F07D14FF08043D3F81C3403F0030300
:10529000012B21D008F08AFD0546F8B9284B1B7870
:1052A000E3B14FF080430222C3F808230646DFF83B
:1052B00094804FF08044D4F81824D4F81834D203E2
:1052C00015D503F00303012B01D0012F0FD155B3E6
:1052D00086F31188BFF36F8FBDE8F081EFF311867D
:1052E000202383F31288BFF36F8F0125DFE7ADB171
:1052F000304606F03BFAD4F81835002BDBD1D4F851
:105300000421002AD7D0C4F80431D4F80431012391
:10531000C4F81835C8F88031A360CCE700212120FB
:1053200008F0E4FDE7E74FF080430222C3F80423CE
:10533000D2E700BF9C3B00208C3B0020BC3B002000
:10534000E33F002000E100E008B5074808F03BFB20
:1053500038B10648FEF7A4FB0448FCF7C7FC002060
:1053600008BD6FF01200FBE7C0E2000071530000BF
:105370000A2838B5074D044604D1AB680D215B6897
:1053800028469847AB6803485B68E1B298472046D7
:1053900038BD00BFC0E200002DE9F041436804467B
:1053A00018688368D96851B140F6CD420023884718
:1053B000002804DB4FF4A470002108F097FD20467C
:1053C00006F09AFB6568AE6A286808F0FCFA0028C7
:1053D00000F09E80002360681A46FE2106F0BAFAAB
:1053E000002810DB002360681A46EF2106F0B2FAAD
:1053F000002808DB09D001236068F218C32106F0F9
:10540000A9FA002816DABDE8F081434F804617F864
:10541000013C17F8021C60683A4606F09BFA002827
:10542000F1DB08F10108B8F1200FE4D00E370028B5
:10543000EDD0E0E760680123B21CC42106F08AFACF
:105440000028E0DB60680123F21CC92106F082FA23
:105450000028D8DB60680623321DF02106F07AFAB6
:105460000028D0DB6068062306F10A02F12106F06D
:1054700071FA0028C7DB6068062306F11002F221EA
:1054800006F068FA0028BEDB6068062306F1160203
:10549000F32106F05FFA0028B5DB6068012306F10E
:1054A0001C02E82106F056FA0028ACDB00236068F5
:1054B0001A46352106F04EFA002802DA00EAE070BA
:1054C000A1E7297F204606F0F8FA00289BDBA97F98
:1054D000204606F0D1FA002895DB95F82430606864
:1054E00073B9002360681A46112106F033FA0028C8
:1054F00089DB41F23430002108F0F8FC002082E71B
:1055000000231A46212106F025FA0028E9DA7AE775
:105510006FF0120077E700BF41F20000F0B5456878
:105520001646A8682A7C01F01F0487B044EA42149A
:10553000002869D0B6F5001F04D1214608F0B5F85F
:10554000002052E001AA0020B6F5800F01905060C3
:1055500037D1B3F1007F14BF052304238DF8043045
:105560000023CDE904230393EB6823FA01F111F042
:1055700001010DF103073AD1B6F1A07F37D104F054
:105580001F03620903F5E07326D0012A3FD1214AA7
:1055900052F82330DB072AD4A8683A46214607F0A0
:1055A000FAFF16301BD00297A86803AA214607F01D
:1055B000BEFE002819DBA8680122214608F022F867
:1055C000BEE7B3F1C06F05D0B3F1007F14BF012374
:1055D0000223C3E70323C1E74FF0A042D8E7A8683E
:1055E000394601F0B3FD0028DDDA07B0F0BDA86848
:1055F0003A46214607F0CFFF0028D5D19DF8031089
:10560000A86801F09DFDCFE76FF08500EDE751F848
:105610002330FFDE00030050420970B5034602D07C
:10562000012A17D070BD0D4E326951680029F9D09A
:1056300003F01F0301250C689D400029F2D08A6801
:105640002A4002D04B68304698472CB12368214647
:105650001C46F2E7024EE7E72346F8E7A0E2000027
:1056600080E2000038B54568A86890B107F0C2FF35
:10567000014670B9A86807F0A1FF044658B9024670
:105680000649A86807F084FF224605210620FDF799
:10569000FBFF002038BD6FF00400FBE71956000047
:1056A0002DE9F043476840F20636D0063B7C87B0D0
:1056B00002EA060654BFC2F3401C4FF0030C01F08F
:1056C0001F05B6F5837F144645EA43158DF803C0E0
:1056D00045D00DD8062E16D005D8A6B1022E40D042
:1056E0006FF0150038E0B6F5807FF9D101260AE0A9
:1056F00040F20222964236D0B6F5407F35D0B6F55C
:10570000007FEDD102260123220303FA01F12ED5F9
:105710007B68C3F80815B86890BB05F01F036D09D6
:105720002BD0012D75D13D4A02EB830284F48033E6
:10573000D2F80017C3F30043C4F3404444EA4304DF
:1057400021F4E16144EA8C0421F0070144EA0623D4
:105750000B43C2F80037002007B0BDE8F0830726EE
:10576000D1E70426CFE70526CDE70326CBE7630381
:1057700044BF7B68C3F80C15CDE74FF0A042D3E7D8
:105780000DF10202294607F006FF14F4403F80465F
:105790000CD1B868294607F033FFB8F1000FDAD111
:1057A0009DF80210B86801F0CBFCD4E74FF0000977
:1057B00001ABCDE90199CDE90439CDF80C90B86879
:1057C00003AA294607F0B3FD4845C4DB14F40033AF
:1057D00014D084F480349DF803308DF80E30C4F377
:1057E00000448DF80C608DF80D40B8684B4603AA54
:1057F000294607F054FE0028CFDAACE7CDE90433A0
:105800000DF103030393B86803AA294607F08FFD3F
:10581000F1E703F5E07350F82330FFDE000300509A
:10582000044A054B9362054A1A60012100220320B5
:10583000FDF72ABFB40100200C3C002000300040DE
:105840002DE9F041456806690446286808F0BBF870
:1058500018B96FF01200BDE8F081304608F0A0F9E9
:105860007461AB68BBB96B7C04220B21204606F047
:105870005DFB0028EFDBAB7C06220B21204606F007
:1058800055FB0028E7DB012320461A46BDE8F0411E
:105890000B2106F04BBB2A7C05230621204606F08F
:1058A00045FB0028D7DBA86808F08DF80028D0D089
:1058B000EB89A868297B43F48032D0F810C0D0F877
:1058C00008E013F0010F4FF00107DCF8003007FA91
:1058D00001F714BF3B43BB43CCF80030DEF8003087
:1058E00098470028B7DB2B7B1A4A012707FA03F3F6
:1058F000C6E90723A8688368DB6906F1180113B9B4
:105900006FF05700A7E73A4698470028A3DB124BF1
:10591000B362A868297BEB8986680269B669002EA4
:10592000EED012688F40174203F040030CBF43F0E3
:10593000B86383F0707323F0794323F47F0323F477
:105940007F4323F0BF034FF0A072B04700288ADAEC
:1059500081E700BFA7BE00005D5900002DE9F04FB0
:10596000044691B050F8100C26230022D0F8049081
:105970000093114606AB06F0B0FA002805DA20467F
:1059800002F0F0FE11B0BDE8F08F244F002697F82A
:10599000008097F801A008F140036B4413F8273CFE
:1059A0001AEA030F13D0216931B1012354F8100C06
:1059B0000D6803FA06FB11BB08F1010254F8100C44
:1059C0005346D2B2002106F0B1FA0028D7DB0136E7
:1059D0000E2E07F10207DAD1D9F8080099F80C5019
:1059E0000669836805A95B6898470028C7D1059BAD
:1059F00032685A400123AB401A42C3D0BFE78A68DD
:105A00001BEA020203D04B680390984703981DB12C
:105A10002B6829461D46CEE72B46FAE733F40000F3
:105A20002DE9F04FDFF818A1DFF818B1DFF8188181
:105A30008E46002740F2FF19FBB29E4502D8002097
:105A4000BDE8F08F50F827104D04C1F3C324C1F313
:105A5000080365D4090E04391AF804404B4508BF01
:105A60004FF0FF3308295ED8DFE801F0050B115D28
:105A70005D5D5D1843005E1CC2F808353CD10137FE
:105A8000DAE75D1CC2F80C35F9D0012535E0C2F823
:105A90001035591CF3D000252E4608E0C2F8083511
:105AA000002CF6D15C1CEAD000252E46062450F8C6
:105AB000271001F4004CBCF1000F1CBF002601258B
:105AC00003F01F0C5B0928D0012B33D1434603EBB5
:105AD0008C0CC1F341212402DCF8003744EA810434
